:020000040800F2
:10000000600600209D0100084F1E00083D1B0008EF
:100010004D1E00080D050008D9260008000000004C
:10002000000000000000000000000000B71F0008F2
:100030001106000800000000B51F0008B91F0008E5
:10004000B7010008B7010008B7010008B7010008B0
:10005000B7010008B7010008B7010008B7010008A0
:10006000B7010008B7010008B7010008B701000890
:10007000B7010008B7010008B7010008B701000880
:1000800011050008B7010008B7010008B701000812
:10009000B7010008B7010008B7010008B701000860
:1000A000B7010008B7010008B7010008B701000850
:1000B000B701000891200008B7010008B701000847
:1000C000B7010008B7010008B7010008B701000830
:1000D000B7010008B7010008B7010008B701000820
:1000E000B7010008B7010008B7010008B701000810
:1000F000B7010008B7010008B7010008B701000800
:10010000B7010008B7010008B7010008B7010008EF
:10011000B7010008B7010008B7010008B7010008DF
:10012000B7010008B7010008B7010008B7010008CF
:10013000B7010008B7010008B7010008B7010008BF
:10014000B7010008B7010008B7010008B7010008AF
:10015000B7010008B7010008B7010008B70100089F
:10016000B7010008B7010008B7010008B70100088F
:10017000B7010008B7010008B7010008000000003F
:10018000B7010008B7010008DFF80CD000F0ACF9A7
:10019000004800478D2E0008600600200648804772
:1001A00006480047FEE7FEE7FEE7FEE7FEE7FEE75C
:1001B000FEE7FEE7FEE7FEE73D20000889010008B4
:1001C0002DE9F05F0546002092469B46884606468C
:1001D000814640241BE0284641464746224600F01F
:1001E000DCF853465A46C01A914110D311461846BE
:1001F000224600F0C3F82D1A67EB01084F4622464D
:100200000120002100F0BAF817EB00094E41201E32
:10021000A4F10104DFDC484631462A464346BDE8E6
:10022000F09FD2B201E000F8012B491EFBD27047CB
:100230000022F6E710B513460A4604461946FFF7B2
:10024000F0FF204610BD2DE9FE4F81EA030404F0C3
:10025000004421F0004100944FF0000B23F00043D4
:1002600050EA01045ED052EA03045BD0C3F30A549F
:10027000C1F30A552C44A4F2F3340194A0FB0254B8
:10028000C1F3130141F48011C3F3130343F480134A
:1002900001FB024400FB034E840A970A44EA81549E
:1002A00047EA8357A4FB076802958D0A05FB07857B
:1002B0004FEA932C04FB0C542705029D4FEA065885
:1002C00047EA1637B5EB08056EEB070C870E920E62
:1002D00047EA811742EA8312A7FB0201B6EB0B0142
:1002E00064EB00042B0D43EA0C335E1844EB1C5006
:1002F000DA465146E7FB0201C5F313044FEA0B331C
:1003000043EA14534FEA0432019C43EA0603A4F182
:100310000C040294009CCDE900B400F094F803B002
:10032000BDE8F08F00200146F9E70EB540F23341F9
:1003300002910021CDE900110A460B4600F083F836
:1003400003B000BD01F0004330B421F0004150EA99
:10035000010206D00A0DA2F56072C1F31301002A52
:1003600002DC30BC00207047440F44EAC104C100E5
:10037000E01830BC00EBC25000F01FB8202A04DBAC
:10038000203A00FA02F1002070479140C2F12003A8
:1003900020FA03F3194390407047202A04DB203AE7
:1003A00021FA02F00021704721FA02F3D040C2F195
:1003B000200291400843194670470029A8BF7047A2
:1003C000401C490008BF20F00100704710B4B0FA8B
:1003D00080FC00FA0CF050EA010404BF10BC704726
:1003E00049B1CCF1200421FA04F411FA0CF118BF40
:1003F000012121430843A3EB0C01CB1D4FEA00610F
:100400004FEA102042BF002010BC704700EBC350E1
:1004100010440029A4BF10BC7047401C490008BF0D
:1004200020F0010010BC704710B5141E73F10004D9
:1004300008DA401C41F1000192185B411A4301D1D6
:1004400020F0010010BD2DE9F04D92469B4611B100
:10045000B1FA81F202E0B0FA80F220329046FFF762
:100460008DFF04460F4640EA0A0041EA0B0153465D
:100470005A46084313D0114653EA010019D0C8F177
:1004800040025046FFF789FF05460E465046594642
:100490004246FFF773FF084305D0012004E02046E1
:1004A0003946BDE8F08D0020054346EAE0762C434E
:1004B00037430A986305E40AA0EB08000022FD0A0E
:1004C00044EA47540A3002D500200146E9E7010515
:1004D00010196941DDE9084500196941BDE8F04D91
:1004E000A2E7002070470000064C074D06E0E068D8
:1004F00040F0010394E8070098471034AC42F6D36B
:10050000FFF746FEE831000808320008FEE7000069
:10051000014800F07FB80000FC01002001681823AA
:10052000CAB2103AB2FBF3F2054B6FF30901032A8A
:100530009B5CC36500D9091D8165084670470000B2
:100540008830000810B5014600208B698A6A4FF098
:10055000C07453B1B3F5005F15D072B1012A0CD04D
:10056000022A0AD0032A09D104E01AB1012A06D0CE
:10057000022A03D1C96AC90100D5012010BDC96A88
:10058000A142FAD010BD002AF7D0012AF2D0022AE7
:10059000F3D0032AF3D010BD30B50468256825F4E4
:1005A00080252560046863608368402B036803D05E
:1005B00099600068C26030BD9A600068C16030BD5B
:1005C000064A10B553680649064C0968B1FBF4F1B8
:1005D00041435068C01A8842FBD310BD001000E0B0
:1005E0004C00002040420F0007480168C9010AD4AE
:1005F000016841F080710160044800214160016898
:1006000041F0010101607047FCED00E0001000E0E6
:10061000704770472DE9F84304464FF00009CDF8C4
:10062000009063484FF41651A56D0068B0FBF1F7D8
:100630002E6894F85C10082000FA01F131420FD0C6
:1006400021680A6852070BD50A6822F004020A6082
:1006500094F85C108840A860606D40F0010060650F
:1006600094F85C104FF0010808FA01F0304208D00D
:1006700021684969090604D5A860606D40F0020050
:10068000606594F85C1004208840304208D02168EE
:100690000968890704D5A860606D40F004006065B2
:1006A00094F85C1010208840304218D02168096806
:1006B000090714D5A86020680168490304D50068BB
:1006C000000308D5A16C07E00168C90503D40168DF
:1006D00021F008010160216C09B12046884794F897
:1006E0005C1020208840304231D021680968C9065A
:1006F0002DD5A86094F8350005282068016806D03B
:10070000490347D5006800031DD4616C1CE021F04B
:10071000160101602068416921F080014161206C6F
:1007200008B9A06C20B12068016821F008010160BF
:1007300094F85C103F208840A86084F8349084F8D6
:100740003580216D1FE0E16B09B120468847606D5F
:1007500000282BD0606DC00714D0052084F8350028
:100760002068016821F0010101600098401C0090A0
:10077000B84203D820680068C007F6D184F83490E6
:1007800084F83580E16C002910D001B02046BDE826
:10079000F04308470168C905D5D4016821F010016C
:1007A000016084F8349084F83580CCE7BDE8F883A4
:1007B0004C0000202DE9F041044600F083F9064684
:1007C0005CB1002584F83450022084F8350020689C
:1007D000016821F0010101600DE00120BDE8F08118
:1007E00000F070F9801B052805D9202060650320E2
:1007F00084F83500F2E720680068C007F0D122686D
:10080000116820480140D4E901031843D4E90336B4
:100810003343184363691843A3691843E3691843D2
:10082000236A18430843616A042903D1D4E90B13EE
:1008300019430843106020684069666A20F0070188
:1008400030460E43012704280CD1A06A0643E06A13
:1008500040B12046FFF776FE20B14020606584F865
:100860003570BAE7206846612046FFF757FE94F8D6
:100870005C203F2191408160656584F835700020DF
:10088000ACE700003F8010F02DE9F0410446866D92
:1008900090F83400002501280DD0012084F83400A0
:1008A00094F835700020012F07D084F83400022519
:1008B0002846BDE8F0810220FBE7022784F8357066
:1008C00060652046FFF768FE94F85C103F20884082
:1008D000B0602068016841F016010160206841693C
:1008E00041F080014161206C20B12068016841F035
:1008F000080101602068016841F001010160D7E74B
:100900002DE9F84FDFF87CB100224FF001084FF0DD
:10091000030A4FF00F090BF1040E00BF0B6808FA31
:1009200002F42340A3426ED14D68022D01D0122D56
:100930000ED1D50800EB850CDCF820505607F70ED9
:1009400009FA07F6B5430E69BE402E43CCF8206085
:10095000066855000F790AFA05FC07F0030726EA36
:100960000C06AF40374307604E68012E05D0022EBB
:1009700003D0112E01D0122E0ED18668CF6826EA40
:100980000C06AF40374387604668A6430C79C4F332
:100990000014944034434460C6688C6826EA0C0610
:1009A000AC403443C4604C68E40065D5364C2568DF
:1009B00045F480452560246822F0030504F4804452
:1009C0000094324C2E19D6F8084895072F0F09FAD3
:1009D00007F5AC432E4DA84201D1002524E02D4D52
:1009E000A84201D101251FE02B4DA84201D10225CB
:1009F0001AE02A4DA84201D1032515E0284DA8424E
:100A000002D1042510E037E0264DA84201D105258A
:100A10000AE0254DA84201D1062505E0234DA84254
:100A200001D1072500E00825BD402543C6F8085838
:100A3000DBF800405D464E689C43F60300D51C433E
:100A40002C60DEF8004075464E689C43B60300D526
:100A50001C432C600B4D08352C684E689C43F602F5
:100A600000D51C432C60074D0C352C684E689C4308
:100A7000B60200D51C432C60521C102AFFF44EAF66
:100A8000BDE8F88F003C014044380240003001408E
:100A9000000002400004024000080240000C024036
:100AA000001002400014024000180240001C0240E6
:100AB0000069084000D0012070470AB18161704789
:100AC0000904FBE7014880687047000040000020EF
:100AD000024881680278114481607047400000201C
:100AE0000B4810B5016841F400710160016841F4E0
:100AF00080610160016841F480710160032000F0B1
:100B000091F8002000F006F800F024F8002010BD55
:100B1000003C024070B50D4D04464FF47A712878C0
:100B2000B1FBF0F00A490968B1FBF0F000F004FBFA
:100B300048B9102C07D200222146501E00F052F86E
:100B400000206C6070BD012070BD000040000020DE
:100B50004C0000201B4808B5016841F48041016049
:100B6000006800F4804000901648001F016841F0C2
:100B7000805101600068002200F0805000900F2139
:100B80006FF00B0000F02EF800220F216FF00A002A
:100B900000F028F800220F216FF0090000F022F881
:100BA00000220F21501F00F01DF800220F21101FFE
:100BB00000F018F800220F21BDE80840901E00F058
:100BC00011B8000044380240002809DB00F01F0281
:100BD000012191404009800000F1E020C0F800119F
:100BE00070470000F0B40E4B1B680C46C3F30223A1
:100BF000C3F10705042D00D90425191D072901D2C9
:100C0000002300E0DB1E012606FA05F1491E214003
:100C100099409E40761E16403143F0BC01F070BDF5
:100C20000CED00E0064900F0070208684FF6FF03EC
:100C3000184040EA0220034A104308607047000051
:100C40000CED00E00000FA052DE9F0470E46050026
:100C500065D0DFF81481D8F80000F7B200F00F007B
:100C6000B04207D288F80070D8F8000000F00F00FA
:100C7000B04254D128683D4C810712D5400703D5B6
:100C8000206840F4E05020602878000703D52068F1
:100C900040F4604020602068A96820F0F00008431C
:100CA00020602878C0072DD03049686808390128AD
:100CB00012D0022813D0032811D00968890700290F
:100CC0002DDA216821F0030101432160FFF7FAFECC
:100CD000814641F2883A0EE009688903EFE7096826
:100CE0008901ECE7FFF7EEFEA0EB0901514502D9BF
:100CF0000320BDE8F0872068696800F00C00B0EBC5
:100D0000810FEFD1D8F80010404601F00F01B14239
:100D100007D90770006800F00F00B04201D0012031
:100D2000E7E72878400705D52068E96820F4E05017
:100D3000084320602878000706D52068296920F438
:100D4000604040EAC100206000F036F82168084A9F
:100D5000C1F30311515CC840064908600020FFF749
:100D6000D9FE0020C5E70000003C024008380240E0
:100D7000903000084C0000200448054900680968CC
:100D8000044AC1F38221515CC84070474C000020E6
:100D900008380240A0300008044805490068096886
:100DA000044AC1F34231515CC84070474C000020F6
:100DB00008380240A0300008154810B5006810F04F
:100DC0000C02144813D01449042A0FD0082A0ED15B
:100DD0000F4C241F2268236802F03F025B0207D5F4
:100DE0002068C0F38810A0FB010106E0084610BD92
:100DF0002168C1F38811A1FB00010023FFF7E0F98E
:100E00002168C1F30141491C4900B0FBF1F010BD5C
:100E1000083802400024F40040787D012DE9F84FA5
:100E2000050076D02878DFF8F8B2BE4CC00749D06C
:100E3000DBF800105846C1F38101012908D0006891
:100E4000C0F3810002280AD1201D0068400206D5A7
:100E50002068800336D568680028E2D032E06868F0
:100E6000B0F5803F10D0B0F5A02F206810D020F44E
:100E700080302060206820F4802020606868A0B165
:100E8000FFF720FE06460CE0206840F48030F4E7CF
:100E900040F480202060F7E7FFF714FE801B6428F1
:100EA00073D820688003F7D50CE0FFF70BFE0646E9
:100EB00005E000BFFFF706FE801B6428F0D820681D
:100EC0008003F7D42878DFF8608280074FF00009AC
:100ED0003ED5DBF80010584611F00C0F09D0006821
:100EE000C0F3810002280BD18D48001F006840022A
:100EF00006D42068800715D5E868012809D111E0DB
:100F0000E868B8B10120C8F80000FFF7DBFD06462D
:100F100005E002E1FFF7D6FD801B0228C0D820685B
:100F20008007F7D52068296920F0F80040EAC10061
:100F300020600DE0C8F80090FFF7C4FD064604E00D
:100F4000FFF7C0FD801B02281FD820688007F7D458
:100F50002878000722D5724E744869696C3671B1E1
:100F600001210160FFF7AEFD074604E0FFF7AAFD8F
:100F7000C01B022809D830688007F7D50EE0C0F8FA
:100F80000090FFF79FFD074605E083E0FFF79AFD1D
:100F9000C01B02287ED830688007F7D42878400725
:100FA00068D5DFF87CA100270AF1380ADAF80000DA
:100FB000C0000BD4DAF8001041F08051CAF80010DC
:100FC000DAF80000012700F080500090584E306899
:100FD000C00510D4306840F480703060FFF772FDB7
:100FE000009005E0FFF76EFD0099401A022851D8E5
:100FF0003068C005F6D54A4EA868683601280FD07B
:101000000528306810D020F001003060306820F0F2
:1010100004003060A868B8B1FFF754FD00900FE0FD
:10102000306840F00100F4E740F004003060F7E77A
:10103000FFF748FD0099411A41F28830814264D897
:1010400030688007F4D50EE0FFF73CFD009007E024
:10105000FFF738FD0099411A41F28830814254D897
:1010600030688007F4D42FB1DAF8001021F08051F5
:10107000CAF80010A869C0B3DBF80010C1F3810101
:1010800002294AD00228484607D0C8F86000FFF776
:1010900019FD00E039E005463AE04746C8F860002F
:1010A000FFF710FD064604E0FFF70CFD801B022849
:1010B0002BD820688001F7D4D5E907010843A96A35
:1010C0001C4A490802EB01416A6A41EA821108435D
:1010D00095F82C1040EA01611148001F01600120C1
:1010E0003866FFF7EFFC054605E014E0FFF7EAFC81
:1010F000401B022809D820688001F7D50BE000BF0B
:10110000FFF7E0FC401B022802D90320BDE8F88F5E
:1011100020688001F4D40020F8E70120F6E7000001
:10112000083802400038024000004742800E474223
:10113000007000400000FFFF10B5401EB0F1807F3E
:1011400001D3012010BD4FF0E02460610F21601732
:1011500001F0D6FA0020A06107202061002010BD18
:101160007047704710B590F83C20012A22D0012228
:1011700080F83C20CA688C6822F4407222434C6894
:1011800022F4806222430C6822F4006222430C693C
:1011900022F4805222434C6922F400522243C9694E
:1011A000002322F480420A4301684A6480F83C30FC
:1011B000002010BD022010BD70B590F83C20012A1F
:1011C00019D0012400F83C4F0222427050F83C3CF8
:1011D0005A689D6822F070060A684968324325F013
:1011E000800529435A6050F83C2C916044700021DE
:1011F0000170084670BD022070BD10B5040003D018
:1012000094F83D0010B107E0012010BD002084F8E3
:101210003C00204600F00CF8022084F83D00211D1F
:10122000206800F03BFF012084F83D00002010BD45
:1012300008B501681948814201D1194819E01848D8
:10124000001FB1F1804F14D0164A914219D10168A4
:1012500041F0020101600068002200F002000090ED
:101260000F211D20FFF7BEFCBDE808401D20FFF741
:10127000ABBC016841F001010160006800F00100B1
:1012800009E0094A914207D1016841F00401016077
:10129000006800F00400009008BD0000000001405C
:1012A000443802400004004000080040022180F859
:1012B0003D1001688A6802F00702062A03D00A6816
:1012C00042F001020A60012180F83D1000207047C1
:1012D0000168CA6842F00102CA600068816801F0D2
:1012E0000701062903D0016841F0010101600020D7
:1012F000704770B5044690F83C00012817D00125CE
:1013000084F83C50022084F83D002068826822F076
:10131000770222F47F4282600868502830D00DDCCA
:1013200020284DD005DC98B310283BD148E002209E
:1013300070BD302844D0402834D139E0602828D00E
:10134000702806D0B0F5805F2CD0B0F5005F29D1B1
:101350000AE0CB68D1E90121206800F010FF206885
:10136000816841F0770109E0CB68D1E9012120686B
:1013700000F005FF2068816841F48041816011E040
:10138000CA684968206800F0CFFF5021206807E054
:1013900016E0CA684968206800F0D7FF602120681D
:1013A00000F0F7FE84F83D50002084F83C0070BD4A
:1013B000CA684968206800F0B7FF40212068EFE75D
:1013C000226801461046EBE72DE9F0410D46040086
:1013D00003D094F83D0018B108E00120BDE8F08189
:1013E000002084F83C00204600F03AF8022084F8FF
:1013F0003D002068816844F2070291438160211D0D
:10140000206800F04BFE226890689169166A2B688C
:10141000AF69034340F20330814341EA0721A868E2
:10142000EF6908434FF6FC418843E96840EA07202A
:10143000014328692F6A000140EA073008436968C0
:101440006D6926F0AA0646EA0515294393602268CD
:10145000906120680162012084F83D000020BDE712
:10146000F0B587B0044614216846FEF7E1FE18493E
:10147000206888422AD117480024016841F00201FF
:101480000160006800F002000590124814380168FD
:1014900041F0040101600068022500F0040005909D
:1014A0004020CDE9000502AA03260B4F82E8700018
:1014B00069463846FFF724FA80200090CDE90154B0
:1014C000CDE9034669463846FFF71AFA07B0F0BD82
:1014D00000040140443802400008024010B50446B0
:1014E000006891B1042904D00122002100F03AFEE5
:1014F000206801225FF0040100F034FE20680168DA
:1015000041F001010160002010BD01220021F3E73C
:10151000704770B50446006801694FF00005C94383
:10152000890715D4C168C943890711D4E91E01612F
:1015300001202077206880698007204602D0FFF7CD
:10154000E7FF04E000F0D8F8204600F05AF92577CC
:1015500020680169C943490717D4C168C9434907CD
:1015600013D46FF0040101610220207720688069A4
:1015700010F4407F204602D0FFF7CAFF04E000F0DD
:10158000BBF8204600F03DF9257720680169C94382
:10159000090716D4C168C943090712D46FF00801BE
:1015A0000161042020772068C0698007204602D0AE
:1015B000FFF7AEFF04E000F09FF8204600F021F9AD
:1015C000257720680169C943C90617D4C168C94392
:1015D000C90613D46FF0100101610820207720683C
:1015E000C06910F4407F204602D0FFF791FF04E06D
:1015F00000F082F8204600F004F9257720680169A0
:10160000C943C90708D1C168C943C90704D1891EA4
:101610000161204600F018F920680169C9430906F4
:1016200009D4C168C943090605D46FF0800101617E
:101630002046FFF795FD20680169C943490609D492
:10164000C168C943490605D46FF0400101612046D5
:1016500000F09EF920680169C94389060BD4C1686E
:10166000C943890607D46FF0200101612046BDE817
:101670007040FFF776BD70BD30B587B004461421C9
:101680006846FEF7D5FD2468174D00211748022251
:101690000123AC4210D1046844F0100404600068D7
:1016A00000F01000059010020090CDE90121CDE975
:1016B000031369460E4812E0B4F1804F11D104685B
:1016C00044F001040460006800F00100059020204F
:1016D0000090CDE90121CDE9031369460548FFF7E4
:1016E0000FF907B030BD0000000001403038024063
:1016F0000010024000000240704770B5044690F8A8
:101700003C000D4601280DD0012684F83C600220E3
:1017100084F83D0042B1042A18D0082A2AD00C2AA5
:101720004DD139E0022070BD206800F03BFD2068FB
:10173000816941F0080181612068816921F004011B
:101740008161206881692A69114311E0206800F0F5
:1017500059FD2068816941F40061816120688169D7
:1017600021F480618161206881692A6941EA02214E
:10177000816124E0206800F07BFD2068C16941F0B0
:101780000801C1612068C16921F00401C1612068BC
:10179000C1692A69114311E0206800F09DFD2068AD
:1017A000C16941F40061C1612068C16921F48061AF
:1017B000C1612068C1692A6941EA0221C16184F8D6
:1017C0003D60002084F83C0070BD10B5040003D0DB
:1017D00094F83D0010B107E0012010BD002084F80E
:1017E0003C00204600F00CF8022084F83D00211D4A
:1017F000206800F053FC012084F83D00002010BD5B
:101800007047704710B504460068012200F0AAFC3A
:101810000B492068884202D00A49884203D1416CB2
:1018200041F4004141642068816801F00701062904
:1018300003D0016841F001010160002010BD0000EB
:10184000000001400004014070B54C49006809687F
:1018500088427DD14FF40070014601F0CFFA484C28
:101860004FF48065294684ED020A084601F0C6FA65
:10187000294684ED030A084601F0C0FA414B84ED85
:10188000040A1878A07001F0EDFBA07801286ED151
:1018900033F8010F40BA00B200EE100A3948B8EE32
:1018A000C00A0C3080ED000A598849BA09B200EE2E
:1018B000101AB8EEC00A80ED010A998849BA09B237
:1018C00000EE101AB8EEC00A80ED020AD98849BAB3
:1018D00009B200EE101AB8EEC00A80ED030A1E200D
:1018E0006061D4ED020AB3EE0E0AF4EEC00AF1EE26
:1018F00010FA37DDD4ED030A9FED231AF4EEC10A86
:10190000F1EE10FA2EDDD4ED040AF4EEC00AF1EE89
:1019100010FA27DD194AC8238C3A022102F5CC704F
:1019200000F096FA84ED0A0A04F134001749D0EC6D
:10193000020A70EE810A90ED021A70EE810A10EE32
:10194000900AC4ED0B0A884216DBA088002800E04C
:1019500012E011D104F13401BDE8704007488C3821
:1019600001F01ABB002000F0FFFA0120E070BDE892
:101970007040002000F0E4BA70BD0000E0000020DC
:1019800000000020E001002000002042CDCC4C3EB1
:101990007047704770B5040004D094F839000025F2
:1019A00010B106E0012070BD84F83850204600F0E8
:1019B00023F8242084F839002068C16821F40051FC
:1019C000C160204600F032FD2068016921F4904199
:1019D00001612068416921F02A0141612068C168E4
:1019E00041F40051C160E563202084F8390084F897
:1019F0003A00002070BD000070B586B00646142184
:101A00006846FEF715FC2149306888423BD12048E2
:101A10000025016841F400310160006800F40030E5
:101A200005901B481038016841F001010160006811
:101A3000694600F0010005900C2000900220019002
:101A40000120029003200390072004901148FEF724
:101A500057FF124C104820604FF00060C4E90105A8
:101A60004014C4E9035080106561C4E906504FF486
:101A70004030C4E908052046FEF79CFE08B1FEF799
:101A8000C8FD7463A66306B070BD0000004400404A
:101A9000403802400000024088600240FC01002003
:101AA000F8B5044690F83A0020283CD1C1B3BAB347
:101AB00094F83800012836D0012084F83800A1625B
:101AC000A2850025E563222084F83A00636B17485D
:101AD000D863636B16481864636B1648D864606BF0
:101AE000134605650846666B216802463046091DA7
:101AF000FEF7CAFE206801684168009184F83850FA
:101B0000C16841F48071C1602068416941F0010100
:101B100041612068416941F0400141610020F8BD08
:101B2000FFE70120FBE70220F9E70000B9230008E6
:101B3000F52300086F23000870477047FEE7000098
:101B4000F0B587B014216846FEF772FB34480024D4
:101B5000016841F001010160016801F00101059196
:101B6000016841F010010160016801F01001059168
:101B7000016841F002010160016801F00201059174
:101B8000016841F008010160016801F00801059158
:101B9000016841F0040101600068224E00F0040079
:101BA0004FF400650590002229463046FEF785FF78
:101BB0001D4F00224FF47E413846FEF77EFF009510
:101BC0000125CDE90154694630460394FEF798FE9D
:101BD0004FF46066CDE90064694614480294FEF74C
:101BE0008FFECDE900650326CDE9024669463846F9
:101BF000FEF786FE4FF45040CDE90005CDE90256D0
:101C000069463846FEF77CFE68030090CDE9015432
:101C1000694638460394FEF773FE07B0F0BD000036
:101C20003038024000100240000C02400004024024
:101C300010B596B000240F9410941194129413943C
:101C40001C2108A81494FEF7F3FA20216846FEF739
:101C5000EFFA1F481D4901605421C0E9011440F208
:101C6000E731C0E9031444618461FFF7C6FA4FF419
:101C700080500F900FA91648FFF73BFB1448FFF761
:101C8000A4FD139413A912481494FFF795FA602049
:101C9000CDE908040A940B940C940D94002208A931
:101CA0000B480E94FFF729FD00944FF40050CDE946
:101CB0000440029401940394694605480794FFF791
:101CC00051FA0348FFF7D8FC16B010BD00000140E0
:101CD0006000002010B58EB0002407940894099489
:101CE0000A940B941C2168460C94FEF7A1FA17483D
:101CF0004FF08041016040F28F61C0E9011440F271
:101D0000E731C0E903148461FFF777FA4FF480509C
:101D1000079007A90D48FFF7ECFA0C48FFF755FDAF
:101D20000B940BA909480C94FFF746FA6020CDE903
:101D3000000402940022694604480494FFF7DDFC85
:101D40000248FFF799FC0EB010BD0000A000002073
:101D500010B586B0002412480094019402940394B4
:101D600004940E490594016042F2CF01C0E90114C8
:101D700040F2E731C0E903148461FFF73EFA4FF403
:101D80008050009069460648FFF7B3FA049404A90E
:101D900003480594FFF710FA06B010BD0004004098
:101DA000E000002010B586B0002410480094019493
:101DB0000294039404940C490594C0E900148460CF
:101DC000C46004618461FFF718FA4FF480500090FA
:101DD00069460648FFF78DFA049404A90348059460
:101DE000FFF7EAF906B010BD00080040200100200E
:101DF00010B58CB024216846FEF71AFA0024124868
:101E0000099410490A94C0E900144FF4BB71C0E969
:101E100002410461446184610120CDE90004CDE9FF
:101E200002040494CDE905400794694606480894E5
:101E3000FFF7CAFA099409A903480A94FFF7BCF905
:101E40000CB010BD0004014060010020FEE77047A7
:101E50002DE9F0411D462DED028B16469FED338B8B
:101E60000F468046B0EE480AF0EE680A01F06EF8C0
:101E7000304CF0EE680A84ED080AA088B0EE480AFB
:101E8000401CA080404601F061F8B0EE408A94ED1D
:101E9000080A294978EE400A94ED060A30EE081A3D
:101EA00084ED061A84ED088A96ED000AD6ED021A32
:101EB00020EE480A01EEC10A96ED011A01EE600A11
:101EC00084ED090AF0EEC00A10EE900A884207DDA0
:101ED0009FED1A1A20EE010A80EE201A84ED091AED
:101EE00038B200F02DF894ED090ABDEEC00A10EEEC
:101EF000100A00B200F038F8A088A84205D394ED8B
:101F0000070A08EE080A84ED070AB0EB450F01D175
:101F10000020A08000EE105AD4ED070AB8EE401A57
:101F2000BDEC028B80EE810ABDE8F081000000006C
:101F3000000000000000002000004842000048426D
:101F4000074A084B4FF400611268002802DB506317
:101F5000002202E04042506301221846FEF7ADBD68
:101F600060000020001002405A3000B200EE100A5B
:101F7000F0EE000A0E49B8EEC00A096820EE200A09
:101F8000DFED090A80EE201AB6EE000ADFED070A3F
:101F900031EE000A20EE200ABDEEC00A10EE100A53
:101FA00000B248637047000000003443000048421C
:101FB000A000002070477047FEF78ABD30B593B08F
:101FC00030216846FEF734F914210CA8FEF730F9E9
:101FD00018480025016841F080510160006800F058
:101FE000805011901448016841F4804101600068FC
:101FF000022400F4804011900120039010200490EE
:10200000009406940820CDE907505420CDE9090436
:1020100004200B906846FEF701FF0CA90F2081E811
:102020003100E002CDE90F0502210CA8FEF70CFEFD
:1020300013B030BD403802400070004010480168C5
:1020400041F4700101600F48016841F00101016035
:102050000C4A00210832116002680B4B1A400260E2
:10206000031D0A4A1A60026822F4802202600548B1
:102070000C30016002495806803908607047000042
:1020800088ED00E000380240FFFFF6FE103000242B
:102090000148FFF73EBA0000E0000020F0B50268FA
:1020A000254C264D264E274F274B4FF0804CA04203
:1020B00009D0604507D0A84205D0B04203D0B8424D
:1020C00001D0984204D122F0700E4A6842EA0E0212
:1020D000A0421BD0604519D0A84217D0B04215D0FD
:1020E000B84213D0984211D0184DA8420ED0184DC6
:1020F000A8420BD0174DA84208D0174DA84205D0D2
:10210000164DA84202D0164DA84203D122F44075C4
:10211000CA682A434D6922F080022A4302608A6815
:10212000C2620A688262A04201D0984201D1096964
:10213000016301214161F0BD000001400004004045
:1021400000080040000C0040000401400040014035
:10215000004401400048014000180040001C0040BD
:102160000020004010B501F01F030121046A9940CE
:102170008C430462016A9A401143016210BD10B59C
:10218000846842EA032224F47F440A4322438260A3
:1021900010BD826822F070020A4342F0070181609C
:1021A00070470000F0B5026A22F001020262036A81
:1021B00042688469124E24F073050C682C4323F0A6
:1021C00002058B682B430D4DA84201D0B04205D1CA
:1021D00023F00807CB683B4323F00403A84201D057
:1021E000B04205D14D6922F4407215438A692A43F1
:1021F00042608461496841630362F0BD00000140B0
:1022000000040140F0B5026A22F010020262026A84
:10221000436884690D6824F4E64444EA05248D6823
:1022200022F0200242EA05120F4D104EA84201D0C2
:10223000B04206D1CF6822F0800242EA071222F0B3
:102240004002A84201D0B04207D14D6923F4406357
:1022500043EA85038D6943EA8503436084614968E5
:1022600081630262F0BD00000000014000040140F3
:10227000F0B5026A22F480720262026A4368C4699D
:1022800022F4007224F073050C68124E2C438D6802
:1022900042EA05220E4DA84201D0B04206D1CF68D5
:1022A00022F4006242EA072222F48062A84201D0AE
:1022B000B04207D14D6923F4405343EA05138D69B9
:1022C00043EA05134360C4614968C1630262F0BD1B
:1022D000000001400004014030B5026A22F480523F
:1022E0000262046A4268C3690D6823F4E64343EA64
:1022F00005238D6824F4005444EA0534084DA842AF
:1023000002D0084DA84204D14D6922F4804242EA2D
:1023100085124260C36149680164046230BD0000F7
:10232000000001400004014010B5036A046A24F073
:1023300001040462846924F0F00444EA021423F0E6
:102340000A020A438461026210BD10B5036A23F0D9
:10235000100303628369046A23F4704343EA023280
:1023600024F0A00343EA01118261016210BD70B53F
:10237000846B2068406994F83910C0F3C0100025C0
:10238000212904D118B1E584204600F046F82068E0
:10239000406994F83A10C0F38010222904D118B192
:1023A000E585204600F02BF8E06B40F01000E0637C
:1023B0002046FFF7EEFA70BD10B50146806B096844
:1023C0000968C90513D40021C1850168CA6822F4CF
:1023D0008072CA6001684A6922F001024A6101689C
:1023E0004A6922F040024A61202180F83A10FFF742
:1023F000A3FB10BD10B5806BFFF79FFB10BD0168FC
:10240000CA6822F49072CA6001684A6922F0010227
:102410004A61202180F83A1070470168CA6822F0AA
:10242000C002CA60202180F8391070472DE9F041C0
:10243000044600680169E26821F4405111430161DA
:102440002169A068E2690843616911432268084371
:10245000D16849F20C6399430143D1602068416916
:10246000A26921F4407111434161E2696425B2F52A
:10247000004F9748974922684FF032083FD08A4270
:1024800001D082427CD1FEF787FC00EBC00101EB5A
:10249000001061688900B0FBF1F6FEF77DFC00EBEF
:1024A000C00101EB001061688900B0FBF1F0B0FBE6
:1024B000F5F06FF01801484306EB800108EB0110BE
:1024C000B0FBF5F000F0F006FEF766FC00EBC00193
:1024D00001EB001061688900B0FBF1F0B0FBF5F092
:1024E00006EB0016FEF758FC00EBC00101EB0010F4
:1024F00061688900B0FBF1F7FEF74EFCD2E08A423A
:1025000001D082423DD1FEF747FC00EBC00101EB58
:10251000001061684900B0FBF1F0B0FBF5F0060176
:10252000FEF73AFC00EBC00101EB001061684900C6
:10253000B0FBF1F7FEF730FC00EBC00101EB00103F
:1025400061684900B0FBF1F0B0FBF5F06FF01801E5
:10255000484307EB800108EBC100B0FBF5F000F049
:10256000F80006EB4006FEF717FC00EBC00101EB9C
:10257000001061684900B0FBF1F7FEF70DFC3CE08C
:1025800055E0FEF7F9FB00EBC00101EB00106168BC
:102590004900B0FBF1F0B0FBF5F00601FEF7ECFBF3
:1025A00000EBC00101EB001061684900B0FBF1F7DE
:1025B000FEF7E2FB00EBC00101EB0010616849008F
:1025C000B0FBF1F0B0FBF5F06FF01801484307EBFA
:1025D000800108EBC100B0FBF5F000F0F80006EB5D
:1025E0004006FEF7C9FB00EBC00101EB001061687B
:1025F0004900B0FBF1F7FEF7BFFB00EBC00101EBB8
:10260000001061684900B0FBF1F0B0FBF5F06FF02D
:102610001801484307EB800108EBC100B0FBF5F05F
:1026200000F00700216830448860BDE8F081FEF7C3
:10263000A3FB00EBC00101EB001061688900B0FB57
:10264000F1F6FEF799FB00EBC00101EB00106168A9
:102650008900B0FBF1F0B0FBF5F06FF018014843D2
:1026600006EB800108EB0110B0FBF5F000F0F0067E
:10267000FEF782FB00EBC00101EB001061688900EE
:10268000B0FBF1F0B0FBF5F006EB0016FEF774FBC3
:1026900000EBC00101EB001061688900B0FBF1F7AD
:1026A000FEF76AFB00EBC00101EB001061688900D6
:1026B000B0FBF1F0B0FBF5F06FF01801484307EB09
:1026C000800108EB0110B0FBF5F000F00F00A9E766
:1026D0000014014000100140FEE74100080218BF4D
:1026E00004200A0E18BF40F001004FF07F4232EA8A
:1026F000010108BF40F00200012808BF0520704713
:102700000907090E002804DB00F1E02080F800141E
:10271000704700F00F0000F1E02080F8141D7047B2
:1027200010B510EE100A2DED068BB7EE001A10EE64
:10273000901AB0EE418A0022A0F5000CDFEDFE9A5F
:102740004FF00073BCF1FE4F4FF07F4403EB410CA0
:1027500080F0B481BCF1804FC0F02082F749014481
:102760009FEDF73AB1F5005F40F2D48200F5802189
:10277000CB0C03F00F0101EE901AC3F307137F3B5C
:10278000A0EBC350B8EEE12A00EE100A1A44DFEDC8
:10279000ED2AF0EE411A42EE221AF0EE613A70EEA6
:1027A000232A30EE632A12EE900A00F500606FF3E0
:1027B0000B0001EE900A73EEE13A33EE804AC1EE6F
:1027C000223A22EE230A10EE100A00F500606FF3A1
:1027D0000B0000EE100A00EE612A00EE442A62EEC1
:1027E000232A70EE221A21EEA12ADFEDD73A02EE5B
:1027F000233A23EE023A20EE012A22EE811A03EE5A
:10280000211A32EE010A10EE100A00F500606FF393
:102810000B0000EE100A72EE401A31EE812A9FED95
:10282000CB1A60EE011A9FEDCA1A20EE011A9FED35
:10283000C90A02EE001A31EE810A10EE100A00F504
:1028400000606FF30B0000EE100AC34871EEC01A6F
:1028500031EE812A784400EBC10090ED003AD0EDD2
:10286000011A100101EE100AF8EEC12A32EE211A07
:1028700031EE001A31EE031A31EE221A11EE100A6F
:1028800000F500606FF30B0009EE100A39EE621AD2
:1028900031EE431A31EE400A30EE610A32EE40AAC0
:1028A00010EE900A002100F500606FF30B0008EEB7
:1028B000900A084670EEE8AAFDF713FE29EE280AF2
:1028C00000F00C01F0EEC00A10EE900AB0F18B4F50
:1028D0000DDD10EE900AB4EB400F08D310EE100A95
:1028E0004FF08B4262F31E0008EE900A13E069EE8F
:1028F0002A0A38EEAA1A4AEE010A30EE201A11EE20
:10290000100A00F500606FF30B0008EE900A30EE3D
:10291000680A70EE209A0C20FDF7E3FD38EEA90A54
:10292000B5EEC00AF1EE10FA34BFFEEE000AF6EE84
:10293000000A30EE800ABDEEC00A10EE100A011146
:1029400000EE101AF8EEC00A00EE100AB8EEC00A47
:1029500038EEC00A30EE290ADFED801A9FED801AAA
:1029600000EE211ADFED7F1A7F4900F00F0040EEE4
:10297000011A21EE800A794401EB800191ED001AE1
:102980007A49794401EB8001D1ED001A784901EED2
:10299000801A794401EB8000764990ED000A31EE0F
:1029A000001AB0EEE00A10EE100A884215DA10EEB6
:1029B000100AB4EB400F10D39FED6F0A30EE800A7F
:1029C000DFED6E0A20EE200A68EE010ABDEC068BF0
:1029D000BCEEC00A20EE200A10BD10EE100A6849B5
:1029E000884243DA10EE100AB4EB400F3ED3BDEE3E
:1029F000E00A68EE010A10EE100A00EBD0725110E6
:102A0000C90501F17E5100EE101AA0EB6200C0056D
:102A100060EE200A00F17E5000EE100A60EE808A1F
:102A200018EE900AB4EB400F0FD1022000F0E0F94D
:102A300000F0BEF910EE101A18EE100ABDEC068B6D
:102A400061F31E0000EE100A10BD18EE900A40005F
:102A500011D018EE900AFFF740FE042808BF00F0DE
:102A6000AFF9B0EE680ABDEC068B10BDF5EEC00AFA
:102A7000F1EE10FA0FD2022000F0BAF900F0A0F93E
:102A800010EE101A18EE100ABDEC068B61F31E0052
:102A900000EE100A10BD022000F0AAF900F088F93B
:102AA00010EE101AB0EE480A10EE100ABDEC068BBC
:102AB00061F31E0000EE100A10BD00BFBCF1804F94
:102AC0006CD300BF00F1FF43B3F1FE4F24D200BF2F
:102AD000B0EEC00A10EE100AC1F3C7537F2B0DDB16
:102AE000972BBFF63BAEC3F196034FF0010C0CFAE7
:102AF00003F3A3F1010C1CEA010F08D0012000F040
:102B000077F9BDEC068BBDE8104000F049B90B42E7
:102B100018BFBFEE008A21E643001CBF4FF0807350
:102B2000B3EB400F34D96FF01A02DFED161A20EE26
:102B3000210A10EE100A27E000000000001080C0FB
:102B4000ABAAAA3E0000803D7EE24C3E00B0384277
:102B5000D49AB8BB3BAA384250080000FC596337EE
:102B6000C9FF753A1872313DEE07000022080000D7
:102B7000920700000000FC420000FE420000004BF3
:102B8000000040430000004D10F0004FA0D1E5E5EB
:102B9000A0F50003B3F1FE4F21D2DFE503EB4103C3
:102BA000B3F1007F11D3F5EEC00AF1EE10FA05D1B2
:102BB000430018BFB4EB400F76D883E701F0004123
:102BC00041F0FC5100EE901A7CE7B3F1807F06D211
:102BD00010EE903AA3F5000300EE903A72E720F071
:102BE00000426FF0FF4C604C02EB0C03A34210D389
:102BF00021F000439C44A4450BD3B0F17E5F18BF85
:102C00005FEA410C50D0B2F1FF4F98BFB3F1FF4FD4
:102C100005D9BDEC068BBDE8104000F0BDB8B0F1A1
:102C2000FF4F0FD0C1F3C7527F2A09DB972A11DA71
:102C3000C2F19602012303FA02F2531E0B4205D0A1
:102C4000002208E011F0004F55D128E00A4218BFD9
:102C5000012200D1022210F5000F13D028B3B0F1E9
:102C6000004F26D010F1814F4FD04FF0FE42B2EB13
:102C7000400F94BF01200020012202EBE171884245
:102C800039D10CE011F0004F02D0012A38D032E0E7
:102C9000012A02BF9FED350ABDEC068B10BD9FEDEA
:102CA000340ABDEC068B10BD2FE011F0004F0CD1A3
:102CB00021E0B1F1FF4F1ED011F5000F05D011F04A
:102CC000004F15D00AB1012A08D0022000F090F878
:102CD000BDEC068BBDE8104000F054B8022000F0B7
:102CE00087F800F04FF8BDEC068BB1EE400A10BD3E
:102CF0000AB1012A04D0B0EE690ABDEC068B10BD02
:102D0000BDEC068B9FED1B0A10BDBDEC068BB7EE2C
:102D1000000A10BD30EE410AB5EE001A9FED172AE9
:102D200000EE413AB6EE001A60EE001A00EE431AC9
:102D300061EEC11A9FED101A20EE011A20EE020A70
:102D40009FED0F2A01EE820A71EE001A11EE900A31
:102D500000F500606FF30B0009EE100A31EE491A1E
:102D600031EE00AA9CE50000FFFF3F00000080FF5D
:102D70000000807F0000008000B0B841D49A38BBCA
:102D80003BAAB841DFED030AB7EE001A81EE200A34
:102D9000704700000000000030EE200A704700007D
:102DA000DFED020A80EEA00A70470000000000007C
:102DB0009FED020A20EE000A70470000000000703C
:102DC0009FED020A20EE000A70470000000000108C
:102DD00002E008C8121F08C1002AFAD170477047E4
:102DE000002001E001C1121F002AFBD17047000042
:102DF0000149086070470000500000202DE9F041B3
:102E00000E461C4F05460146002401223846FDF7B8
:102E100054FE0A20FDF7D4FB002229463846FDF770
:102E20004CFE154D31462846FDF742FE0028F9D0EC
:102E300004E0641CA4B20120FDF7C2FB3146284621
:102E4000FDF736FE0028F4D12046FDF76EFA9FED1F
:102E50000B1B53EC112BFDF7F6F99FED0A1B53ECFE
:102E6000112BFDF7F0F9FDF76DFA00EE100ABDE841
:102E7000F0810000000C02400004024003098A1F98
:102E800063EEAA3F000000000000E03F08B5FDF738
:102E900027FEFFF793F8FEF753FE28480024016849
:102EA00041F4001101600068224600F40010009017
:102EB0000F211020FDF796FE1020FDF785FEFEF78E
:102EC000B7FEFEF707FFFEF743FF1E481C490160EF
:102ED0004FF4E131C0E901140C21C460C0E90441A0
:102EE0008461C461FEF756FDFEF782FFFEF75AFFCC
:102EF000FDF77AFB00211448FEF784FC1248FEF728
:102F0000D5F911484030FEF7D1F90F480021403083
:102F1000FEF778FC0C488030FEF7DAF9094800210A
:102F20004038FEF7DBFA0749092240310548FEF731
:102F3000B7FD0020FFF718F8FEE700003038024028
:102F400000440040A00100206000002070B506464B
:102F50002DED028B00249FED0F8A51EC100BFDF735
:102F6000F1F90546C4F1030000EE900A00EE105A94
:102F7000F8EEE00AFFF7D4FB06EB8400641CD0ED0A
:102F8000000A032C00EE808AECDBB0EE480ABDECB0
:102F9000028B70BD0000000070B52F4ADFED2F0AD4
:102FA000134616785B78032501EB830400EB83035B
:102FB000012E13D00126167093ED001AD4ED001ADD
:102FC000B0EE002A01EEC21A83ED001AD2ED0C1AFF
:102FD000B4EEE10AF1EE10FA0FD319E093ED001A06
:102FE000D4ED001A31EE211A83ED001A92ED0C1A7D
:102FF000B4EEC10AF1EE10FA07D282ED0C0A507855
:1030000001EB800090ED000A14E0002010701CE03D
:103010005378DFED130A00EB830001EB830393ED9C
:10302000000A31EE000A80ED000A507801EB8000C2
:1030300090ED000A20EE200A80ED000A5078401C36
:10304000B0FBF5F105FB11005070D088BFEE000A0F
:10305000401CD08070BD000000000020CDCC8C3F13
:103060006666663F06490868002280B20A6000EE84
:10307000100A9FED041AF8EE400A80EE810A7047AC
:1030800024040140CDCCCC3D0006101600061016DD
:103090000000000000000000010203040607080908
:1030A0000000000001020304000000000000000016
:1030B0000000B33FB2BE7D3A00002E40DFCF513852
:1030C00000007E40BF51FABA00E0A44019DAC3BA4A
:1030D00000E0C840C2ED8AB90040EB40CD1F2CBAD9
:1030E000001006412AFFFABA00C01541DFCFD137E0
:1030F00000D024419A97703A0050334189478E3668
:1031000000404141E75B9D3800B04E41C00A98B98C
:1031100000A05B41558F943A00306841DA92C0BA02
:103120000040744162B3C63A0000803F00A0853F72
:1031300000908B3F00C0913F0030983F00F09E3FD1
:1031400000F0A53F0050AD3F0000B53F0000BD3F7F
:103150000060C53F0020CE3F0040D73F00C0E03FA9
:1031600000C0EA3F0020F53F000000007D36AC398A
:103170007D3C3839EBDCF438320A7E39124C263982
:103180009B6AED39A4EE83397F661E39F6398A3998
:103190002B426539A48211395B991F39C3EECD39B1
:1031A000DDE7C637A5A22F390000803FC3AA853FBF
:1031B000C2958B3FD3C3913FF037983F32F59E3F86
:1031C000D7FEA53F3F58AD3FF304B53FA408BD3F30
:1031D0002A67C53F8C24CE3FFD44D73FDFCCE03F7C
:1031E000C7C0EA3F7D25F53F0832000800000020F7
:1031F00054000000D02D00085C320008540000206C
:103200000C060000E02D0008010000000000000096
:10321000000000000000000000000000140000009A
:10322000000000000000000000000000000000009E
:103230000000000000000000000000000000803FCF
:103240000000803F0000803F0100000010000000EF
:0C325000000000000024F400000000005A
:040000050800018965
:00000001FF
