:020000040800F2
:10000000880600209D010008EF2D0008DF2A000867
:10001000ED2D00081D0800081D3600080000000036
:10002000000000000000000000000000972E000803
:10003000F908000800000000952E0008992E00081D
:10004000B7010008B7010008B7010008B7010008B0
:10005000B7010008B7010008B7010008B7010008A0
:10006000B7010008B7010008B7010008B701000890
:10007000B7010008B7010008B7010008B701000880
:1000800021080008B7010008B7010008B7010008FF
:10009000B7010008B7010008B7010008B701000860
:1000A000B7010008B7010008B7010008B701000850
:1000B000B7010008712F0008B7010008B701000858
:1000C000B7010008B7010008B7010008B701000830
:1000D000B7010008B7010008B7010008B701000820
:1000E000B7010008B7010008B7010008B701000810
:1000F000B7010008B7010008B7010008B701000800
:10010000B7010008B7010008B7010008B7010008EF
:10011000B7010008B7010008B7010008B7010008DF
:10012000B7010008B7010008B7010008B7010008CF
:10013000B7010008B7010008B7010008B7010008BF
:10014000B7010008B7010008B7010008B7010008AF
:10015000B7010008B7010008B7010008B70100089F
:10016000B7010008B7010008B7010008B70100088F
:10017000B7010008B7010008B7010008000000003F
:10018000B7010008B7010008DFF80CD000F034FB1D
:10019000004800475D360008880600200648804772
:1001A00006480047FEE7FEE7FEE7FEE7FEE7FEE75C
:1001B000FEE7FEE7FEE7FEE71D2F000889010008C5
:1001C0002DE9F05F0546002092469B46884606468C
:1001D000814640241BE0284641464746224600F01F
:1001E00054FA53465A46C01A914110D31146184644
:1001F000224600F03BFA2D1A67EB01084F462246D3
:100200000120002100F032FA17EB00094E41201EB8
:10021000A4F10104DFDC484631462A464346BDE8E6
:10022000F09FD2B201E000F8012B491EFBD27047CB
:100230000022F6E710B513460A4604461946FFF7B2
:10024000F0FF204610BD2DE9FE4F804681EA0300F5
:10025000C00F0C46009021F0004123F00045B8EBA0
:100260000200A94105D24046214690461C460B4655
:10027000024623F00040104347D0270DC7F30A0081
:10028000C3F30A510290401A019040286BDAC3F37D
:10029000130040F4801B0098924620B10023D2EB5B
:1002A000030A63EB0B0B01985946C0F1400250461C
:1002B00000F0DCF906460D4650465946019A00F01A
:1002C000F4F910EB08006141002487EA115284EA36
:1002D000E7731A4340D0009A62B3019A012A4FEAA9
:1002E000075215DC001B61EB02014FF0004202EAED
:1002F0000752CDE90042001C41F5801132462B46E1
:1003000000F02BFA03B0BDE8F08F40462146F9E734
:10031000001B61EB0201001C41F5801300185B41DA
:100320002018A2F5001747EB030140EAD570B61973
:100330006D4111E06D084FEA360645EAC0754FEA97
:100340000752001B61EB0201001C41F580114908B6
:100350004FEA30000019514132462B4603B0BDE848
:10036000F04F00F0EBB90098012240000023D0EBE1
:10037000020263EBE073009821464FEAE074B8EBA9
:10038000000061EB0401E9E783F000435BE781F0E3
:10039000004158E72DE9FE4F81EA030404F00044D0
:1003A00021F0004100944FF0000B23F0004350EA8D
:1003B00001045ED052EA03045BD0C3F30A54C1F3D4
:1003C0000A552C44A4F2F3340194A0FB0254C1F367
:1003D000130141F48011C3F3130343F4801301FBB1
:1003E000024400FB034E840A970A44EA815447EA18
:1003F0008357A4FB076802958D0A05FB07854FEA22
:10040000932C04FB0C542705029D4FEA065847EA3B
:100410001637B5EB08056EEB070C870E920E47EA10
:10042000811742EA8312A7FB0201B6EB0B0164EBD2
:1004300000042B0D43EA0C335E1844EB1C50DA46E3
:100440005146E7FB0201C5F313044FEA0B3343EABD
:1004500014534FEA0432019C43EA0603A4F10C044E
:100460000294009CCDE900B400F077F903B0BDE838
:10047000F08F00200146F9E72DE9F04D81EA0304F1
:1004800004F0004B21F0004514464FF0000A23F021
:10049000004150EA050220D054EA01021DD0C5F304
:1004A0000A570246C5F31303C1F31300C1F30A56FA
:1004B00040F4801543F48013A7EB0608101BD646C2
:1004C00008F2FD3873EB050002D308F1010801E0E2
:1004D00092185B41B8F1000F03DA00200146BDE835
:1004E000F08D00204FF48011064684460EE0171B65
:1004F00073EB050705D3121B63EB050306434CEAB8
:10050000010C49084FEA300092185B4150EA01079C
:10051000EDD152EA030012D082EA040083EA050119
:10052000084305D0101BAB4106D20122002306E090
:1005300000224FF0004302E06FF0010253101AEB6B
:1005400006004CEB085110EB0A0041EB0B01BDE833
:10055000F04D00F0F3B80EB540F2334102910021A6
:10056000CDE900110A460B4600F0F7F803B000BDD4
:1005700070B5C1F30A5201F000450024C1F3130124
:1005800040F2FF3341F480119A4201DA002070BD3D
:1005900040F233439A42A2F2334203DC524200F06B
:1005A00074F800E090402C43F1D0404270BD00F060
:1005B000004230F000400AD0C10D01F56071C0F377
:1005C000160042EA0151C20840071143704700205B
:1005D0000146704730B5041E71F1000404DB4FF092
:1005E0000044404264EB0101141E73F1000405DB7A
:1005F0001C464FF00043524263EB04038B4208BF9A
:10060000824230BD30B5041E71F1000404DB4FF0AE
:100610000044404264EB0101141E73F1000405DB49
:100620001C464FF00043524263EB0403994208BF5B
:10063000904230BD01F0004330B421F0004150EA57
:10064000010206D00A0DA2F56072C1F31301002A5F
:1006500002DC30BC00207047440F44EAC104C100F2
:10066000E01830BC00EBC25000F031B8202A04DBA7
:10067000203A00FA02F1002070479140C2F12003B5
:1006800020FA03F3194390407047202A04DB203AF4
:1006900021FA02F00021704721FA02F3D040C2F1A2
:1006A00020029140084319467047202A06DBCB17E9
:1006B000203A41FA02F043EAE07306E041FA02F31D
:1006C000D040C2F1200291400843194670470029EA
:1006D000A8BF7047401C490008BF20F001007047C8
:1006E00010B4B0FA80FC00FA0CF050EA010404BF28
:1006F00010BC704749B1CCF1200421FA04F411FA7E
:100700000CF118BF012121430843A3EB0C01CB1DC1
:100710004FEA00614FEA102042BF002010BC704732
:1007200000EBC35010440029A4BF10BC7047401C0C
:10073000490008BF20F0010010BC704710B5141E1E
:1007400073F1000408DA401C41F1000192185B418A
:100750001A4301D120F0010010BD2DE9F04D924661
:100760009B4611B1B1FA81F202E0B0FA80F2203278
:100770009046FFF77BFF04460F4640EA0A0041EA35
:100780000B0153465A46084313D0114653EA010061
:1007900019D0C8F140025046FFF777FF05460E46D4
:1007A000504659464246FFF761FF084305D00120F5
:1007B00004E020463946BDE8F08D0020054346EAB6
:1007C000E0762C4337430A986305E40AA0EB08005F
:1007D0000022FD0A44EA47540A3002D500200146AF
:1007E000E9E7010510196941DDE90845001969418A
:1007F000BDE8F04DA2E70000064C074D06E0E068BA
:1008000040F0010394E8070098471034AC42F6D357
:10081000FFF7BEFCB8380008D8380008FEE7000033
:10082000014800F0C7BD000028020020016818231D
:10083000CAB2103AB2FBF3F2054B6FF30901032A77
:100840009B5CC36500D9091D81650846704700009F
:100850009838000810B5014600208B698A6A4FF06D
:10086000C07453B1B3F5005F15D072B1012A0CD03A
:10087000022A0AD0032A09D104E01AB1012A06D0BB
:10088000022A03D1C96AC90100D5012010BDC96A75
:10089000A142FAD010BD002AF7D0012AF2D0022AD4
:1008A000F3D0032AF3D010BD30B50468256825F4D1
:1008B00080252560046863608368402B036803D04B
:1008C00099600068C26030BD9A600068C16030BD48
:1008D00007480168C9010AD4016841F080710160CC
:1008E000044800214160016841F001010160704746
:1008F000FCED00E0001000E07047000010B52DEDA9
:10090000040B2DED108BB0B0B0EE418AF0EE618A91
:100910009FEDFECBB0EE4C4AF0EE6C4A9FEDFDEB46
:10092000B0EE4E3AF0EE6E3A9FEDFC1BB0EE480A88
:10093000F0EE680AB0EE412AF0EE612A02F00AFFFA
:10094000B0EE40AAF0EE60AA9FEDF64B9FEDF7DB0C
:10095000B0EE4C2AF0EE6C2AB0EE4D3AF0EE6D3A65
:10096000B0EE4E1AF0EE6E1AB0EE480AF0EE680ADB
:1009700002F0F0FEB0EE409AF0EE609A9FEDED3B93
:10098000B0EE434AF0EE634A9FEDE62BB0EE4D1A0F
:10099000F0EE6D1AB0EE480AF0EE680A02F0DAFEE8
:1009A000B0EE408AF0EE608AB0EE4E4AF0EE6E4A4B
:1009B0009FEDE2FBB0EE4F3AF0EE6F3A9FEDE11B98
:1009C0009DED400BB0EE412AF0EE612A02F0C2FE2E
:1009D000B0EE40BAF0EE60BA9FEDDC4BB0EE4C3AB0
:1009E000F0EE6C3AB0EE4E2AF0EE6E2AB0EE4F1AF0
:1009F000F0EE6F1A9DED400B02F0ACFEB0EE40FA47
:100A0000F0EE60FAB0EE4D4AF0EE6D4A9FEDCF3B4E
:100A10009FEDCE2BB0EE4C1AF0EE6C1A9DED400B14
:100A200002F098FEB0EE40EAF0EE60EA9FEDC9CB2E
:100A3000B0EE4C4AF0EE6C4A9FEDBA3BB0EE4D2A58
:100A4000F0EE6D2A9FEDC11B9DED400B02F082FE82
:100A5000B0EE40DAF0EE60DA9FEDC03BB0EE4C2A2B
:100A6000F0EE6C2AB0EE434AF0EE634A9FEDAD1B08
:100A70009DED400B02F06EFEB0EE40CAF0EE60CA93
:100A80009FEDB80B8DED280B9FEDB80B8DED260B70
:100A90009FEDB80B8DED240B9FEDAC0B8DED220B74
:100AA0009FEDB60B8DED200B9FEDB60B8DED1E0B64
:100AB0009FEDB60B53EC1A2B8DED1C0B51EC1B0B61
:100AC000FFF768FC41EC100B53EC192B8DED140B68
:100AD00051EC1B0BFFF75EFC41EC100B53EC182B99
:100AE0008DED060B51EC1B0BFFF754FC41EC100B8A
:100AF00053EC1A2B8DED0E0B51EC1F0BFFF74AFC3C
:100B000041EC1B0B53EC192B51EC1F0BFFF742FC74
:100B100041EC100B53EC182B8DED120B51EC1F0B0D
:100B2000FFF738FC41EC100B53EC1A2B8DED100B3A
:100B300051EC1E0BFFF72EFC41EC100B53EC192B64
:100B40008DED0A0B51EC1E0BFFF724FC41EC100B52
:100B500053EC182B8DED040B51EC1E0BFFF71AFC18
:100B600041EC100B53EC1A2B51EC1D0BB0EE40FA7C
:100B7000F0EE60FAFFF70EFC41EC100B53EC192B72
:100B80008DED160B51EC1D0BFFF704FC41EC1E0B19
:100B900053EC182B51EC1D0BFFF7FCFB41EC1D0B2C
:100BA00053EC1A2B51EC1C0BFFF7F4FB41EC1A0B26
:100BB00053EC192B51EC1C0BFFF7ECFB41EC190B20
:100BC00053EC182B51EC1C0BFFF7E4FB41EC100B22
:100BD000B0EE491AF0EE691A02F09EFDB0EE408ABE
:100BE000F0EE608AB0EE4F1AF0EE6F1AB0EE4E0AD9
:100BF000F0EE6E0A02F090FDB0EE401AF0EE601AD0
:100C0000B0EE4A0AF0EE6A0A02F086FDB0EE40CA83
:100C1000F0EE60CA9DED101B9DED040B02F07CFD13
:100C2000B0EE401AF0EE601A9DED160B02F074FD66
:100C3000B0EE40AAF0EE60AA9DED0A1B9DED120BEE
:100C400002F06AFDB0EE401AF0EE601A9DED0E0B58
:100C500002F062FDB0EE409AF0EE609A9DED061B48
:100C60009DED140B02F058FDB0EE40EAF0EE60EAA4
:100C700053EC1D2B51EC180BFFF7E5FA53EC1C2B32
:100C8000FFF7E1FA53EC1A2BFFF7DDFA53EC192BBF
:100C9000FFF7D9FA53EC1B2BFFF7D5FA53EC1E2BB9
:100CA000FFF7D1FA9FED290B41EC1F0B8DED0E0BD9
:100CB0009FED260B53EC102BFFF78CFC05D19DED1F
:100CC0000E0B30B0BDEC108B1FBD9DED280B53EC0F
:100CD0001E2B51EC100BFFF75DFB41EC100B53EC9E
:100CE0001B2BB0EE40EAF0EE60EA9DED260B51ECD6
:100CF000100BFFF74FFB9DED240B41EC1B0B53EC4E
:100D0000192B51EC100BFFF745FB43E09A99999989
:100D10009999A9BF9A9999999999B9BF000000002A
:100D200000408FC09A9999999999B93F9A99999940
:100D30009999A93F0000000000408F409A99999925
:100D40009999C9BF00000000000018C00000000011
:100D5000000000009A9999999999C93F00000000F4
:100D60000000184000000000000069C00000000002
:100D700000005EC00000000000004EC00000000047
:100D800000004E400000000000005E400000000037
:100D9000000069409DED220B41EC190B53EC1A2B1E
:100DA00051EC100BFFF7F6FA9DED200B41EC1A0BFE
:100DB00053EC1C2B51EC100BFFF7ECFA9DED1E0BC6
:100DC00041EC1C0B53EC1D2B51EC100BFFF7E2FA1E
:100DD0009DED1C0B41EC1D0B53EC182B51EC100B33
:100DE000FFF7D8FA53EC1D2BFFF72DFA53EC1C2B11
:100DF000FFF729FA53EC1A2BFFF725FA53EC192BBE
:100E0000FFF721FA53EC1B2BFFF71DFAB0EE4E0A49
:100E1000F0EE6E0A53EC102BFFF715FA53EC1F2B74
:100E2000FFF72AFB41EC100B8DED0E0B49E700009C
:100E300010B52DED040B2DED108BAEB0B0EE41CA08
:100E4000F0EE61CA9FEDF84B9FEDF99BB0EE493A89
:100E5000F0EE693A9FEDF81BB0EE4C0AF0EE6C0A2A
:100E6000B0EE412AF0EE612A02F074FCB0EE40AA26
:100E7000F0EE60AA9FEDF28BB0EE484AF0EE684AC1
:100E80009FEDF1BBB0EE4B3AF0EE6B3A9FEDF02BDD
:100E9000B0EE491AF0EE691AB0EE4C0AF0EE6C0AA8
:100EA00002F058FCB0EE409AF0EE609A9FEDEA3BFB
:100EB000B0EE482AF0EE682AB0EE434AF0EE634AFC
:100EC000B0EE4B1AF0EE6B1AB0EE4C0AF0EE6C0A74
:100ED00002F040FCB0EE408AF0EE608A9FEDE0BB8D
:100EE000B0EE4B4AF0EE6B4A9FEDDFEBB0EE4E3AC0
:100EF000F0EE6E3A9FEDDE1B9DED3E0BB0EE412A0B
:100F0000F0EE612A02F026FCB0EE40FAF0EE60FA54
:100F10009FEDD9CBB0EE4C4AF0EE6C4A9FEDD8DB9A
:100F2000B0EE4B2AF0EE6B2AB0EE4D3AF0EE6D3A91
:100F3000B0EE4E1AF0EE6E1A9DED3E0B02F00AFC7A
:100F4000B0EE40BAF0EE60BA9FEDCF4B9FEDD0EB24
:100F5000B0EE4C2AF0EE6C2AB0EE4E3AF0EE6E3A5D
:100F6000B0EE4D1AF0EE6D1A9DED3E0B02F0F2FB65
:100F7000B0EE40CAF0EE60CA9FEDC7DBB0EE4D4A5E
:100F8000F0EE6D4A9FEDC63B9FEDBF2BB0EE4E1AC3
:100F9000F0EE6E1A9DED3E0B02F0DCFBB0EE40EA87
:100FA000F0EE60EA9FEDC03BB0EE4D2AF0EE6D2A08
:100FB000B0EE434AF0EE634A9FEDB91B9DED3E0B48
:100FC00002F0C8FBB0EE40DAF0EE60DA9FEDB80B4D
:100FD0008DED280B9FEDB80B8DED260B9FEDB80B1B
:100FE0008DED240B9FED900B8DED220B9FEDB60B3D
:100FF0008DED200B9FEDB60B8DED1E0B9FEDB60B0F
:1010000053EC1A2B8DED1A0B51EC1F0BFFF7C2F9A5
:1010100041EC100B53EC192B8DED120B51EC1F0B07
:10102000FFF7B8F941EC100B53EC182B8DED160BB4
:1010300051EC1F0BFFF7AEF941EC100B53EC1A2BE0
:101040008DED100B51EC1B0BFFF7A4F941EC100BCD
:1010500053EC192B8DED0E0B51EC1B0BFFF79AF98E
:1010600041EC100B53EC182B8DED0C0B51EC1B0BC2
:10107000FFF790F941EC1B0B53EC1A2B51EC1C0BB6
:10108000FFF788F941EC100B53EC192B8DED180B81
:1010900051EC1C0BFFF77EF941EC100B53EC182BB5
:1010A0008DED0A0B51EC1C0BFFF774F941EC100BA2
:1010B00053EC1A2B8DED080B51EC1E0BFFF76AF960
:1010C00041EC1C0B53EC192B51EC1E0BFFF762F992
:1010D00041EC100B53EC182B51EC1E0BB0EE40FA08
:1010E000F0EE60FAFFF756F941EC100B53EC1A2BB7
:1010F00051EC1D0BB0EE40EAF0EE60EAFFF74AF962
:1011000041EC1A0B53EC192B51EC1D0BFFF742F974
:1011100041EC190B53EC182B51EC1D0BFFF73AF96E
:1011200041EC1D0BB0EE491AF0EE691AB0EE4A0A16
:10113000F0EE6A0A02F0F0FAB0EE408AF0EE608A51
:101140009DED181BB0EE4F0AF0EE6F0A02F0E4FAC4
:10115000B0EE401AF0EE601AB0EE4D0AF0EE6D0AF5
:1011600002F0DAFAB0EE40DAF0EE60DA9DED0E1B36
:101170009DED0A0B02F0D0FAB0EE401AF0EE601AC4
:10118000B0EE4E0AF0EE6E0A02F0C6FAB0EE40AAD9
:10119000F0EE60AA9DED081B9DED0C0B02F0BCFA71
:1011A000B0EE401AF0EE601A9DED120B02F0B4FAA8
:1011B000B0EE409AF0EE609A9DED161B9DED100B7F
:1011C00002F0AAFAB0EE40EAF0EE60EA53EC1C2B13
:1011D00051EC180BFFF737F853EC1D2BFFF733F8E2
:1011E00053EC1A2BFFF72FF853EC192BFFF72BF8C2
:1011F00053EC1B2BFFF727F853EC1E2BFFF723F8BC
:101200009FED090B41EC1F0B8DED0E0B9FED060BB7
:1012100053EC102BFFF7DEF962D19DED0E0B2EB0D3
:10122000BDEC108B1FBD5BE0000000000000000063
:101230000000000000001CC000000000000059C0B9
:101240000000000000001C400000000000000840FA
:1012500000000000000008C000000000000059402D
:1012600000000000000039C000000000008046C0FF
:1012700000000000008056C000000000000014C004
:101280000000000000002EC00000000000002E4002
:1012900000000000000014400000000000804640F4
:1012A00000000000000039400000000000805640AF
:1012B0000000000000004EC000000000000044C01C
:1012C00000000000000034C00000000000003440B6
:1012D00000000000000044400000000000004E40FC
:1012E0009DED280B53EC1E2B51EC100BFFF752F821
:1012F00041EC100B53EC1B2B8DED0A0B9DED260BD7
:1013000051EC100BFFF746F89DED240B41EC1B0B45
:1013100053EC192B51EC100BFFF73CF89DED220B11
:1013200041EC1E0B53EC1A2B51EC100BFFF732F86B
:101330009DED200B41EC190B53EC1D2B51EC100BC8
:10134000FFF728F89DED1E0B41EC1A0B53EC1C2BFC
:1013500051EC100BFFF71EF89DED1A0B41EC1C0B26
:1013600053EC182B51EC100BFFF714F853EC1C2B1B
:10137000FEF769FF53EC1A2BFEF765FF53EC192BB0
:10138000FEF761FF53EC1E2BFEF75DFF53EC1B2BAA
:10139000FEF759FF9DED0A0B53EC102BFEF753FFA0
:1013A00053EC1F2BFFF768F841EC100B8DED0E0B83
:1013B00035E770472DE9F84304464FF00009CDF8B2
:1013C000009063484FF41651A56D0068B0FBF1F72B
:1013D0002E6894F85C10082000FA01F131420FD019
:1013E00021680A6852070BD50A6822F004020A60D5
:1013F00094F85C108840A860606D40F00100606562
:1014000094F85C104FF0010808FA01F0304208D05F
:1014100021684969090604D5A860606D40F00200A2
:10142000606594F85C1004208840304208D0216840
:101430000968890704D5A860606D40F00400606504
:1014400094F85C1010208840304218D02168096858
:10145000090714D5A86020680168490304D500680D
:10146000000308D5A16C07E00168C90503D4016831
:1014700021F008010160216C09B12046884794F8E9
:101480005C1020208840304231D021680968C906AC
:101490002DD5A86094F8350005282068016806D08D
:1014A000490347D5006800031DD4616C1CE021F09E
:1014B000160101602068416921F080014161206CC2
:1014C00008B9A06C20B12068016821F00801016012
:1014D00094F85C103F208840A86084F8349084F829
:1014E0003580216D1FE0E16B09B120468847606DB2
:1014F00000282BD0606DC00714D0052084F835007B
:101500002068016821F0010101600098401C0090F2
:10151000B84203D820680068C007F6D184F8349038
:1015200084F83580E16C002910D001B02046BDE878
:10153000F04308470168C905D5D4016821F01001BE
:10154000016084F8349084F83580CCE7BDE8F883F6
:10155000840000202DE9F041044600F07FF90646A2
:101560005CB1002584F83450022084F835002068EE
:10157000016821F0010101600DE00120BDE8F0816A
:1015800000F06CF9801B052805D920206065032038
:1015900084F83500F2E720680068C007F0D12268BF
:1015A000116820480140D4E901031843D4E9033607
:1015B0003343184363691843A3691843E369184325
:1015C000236A18430843616A042903D1D4E90B1341
:1015D00019430843106020684069666A20F00701DB
:1015E00030460E43012704280CD1A06A0643E06A66
:1015F00040B12046FFF72EF920B14020606584F805
:101600003570BAE7206846612046FFF70FF994F875
:101610005C203F2191408160656584F83570002031
:10162000ACE700003F8010F02DE9F0410446866DE4
:1016300090F83400002501280DD0012084F83400F2
:1016400094F835700020012F07D084F8340002256B
:101650002846BDE8F0810220FBE7022784F83570B8
:1016600060652046FFF720F994F85C103F20884021
:10167000B0602068016841F016010160206841698E
:1016800041F080014161206C20B12068016841F087
:10169000080101602068016841F001010160D7E79D
:1016A0002DE9F84FDFF87CB100224FF001084FF030
:1016B000030A4FF00F090BF1040E00BF0B6808FA84
:1016C00002F42340A3426ED14D68022D01D0122DA9
:1016D0000ED1D50800EB850CDCF820505607F70E2C
:1016E00009FA07F6B5430E69BE402E43CCF82060D8
:1016F000066855000F790AFA05FC07F0030726EA89
:101700000C06AF40374307604E68012E05D0022E0D
:1017100003D0112E01D0122E0ED18668CF6826EA92
:101720000C06AF40374387604668A6430C79C4F384
:101730000014944034434460C6688C6826EA0C0662
:10174000AC403443C4604C68E40065D5364C256831
:1017500045F480452560246822F0030504F48044A4
:101760000094324C2E19D6F8084895072F0F09FA25
:1017700007F5AC432E4DA84201D1002524E02D4DA4
:10178000A84201D101251FE02B4DA84201D102251D
:101790001AE02A4DA84201D1032515E0284DA842A0
:1017A00002D1042510E037E0264DA84201D10525DD
:1017B0000AE0254DA84201D1062505E0234DA842A7
:1017C00001D1072500E00825BD402543C6F808588B
:1017D000DBF800405D464E689C43F60300D51C4391
:1017E0002C60DEF8004075464E689C43B60300D579
:1017F0001C432C600B4D08352C684E689C43F60248
:1018000000D51C432C60074D0C352C684E689C435A
:10181000B60200D51C432C60521C102AFFF44EAFB8
:10182000BDE8F88F003C01404438024000300140E0
:10183000000002400004024000080240000C024088
:10184000001002400014024000180240001C024038
:101850000AB1816170470904FBE700000148806814
:101860007047000078000020024881680278114427
:1018700081607047780000200B4810B5016841F482
:1018800000710160016841F480610160016841F408
:1018900080710160032000F091F8002000F006F84C
:1018A00000F024F8002010BD003C024070B50D4D42
:1018B00004464FF47A712878B1FBF0F00A490968C0
:1018C000B1FBF0F000F004FB48B9102C07D2002265
:1018D0002146501E00F052F800206C6070BD0120BF
:1018E00070BD000078000020840000201B4808B56F
:1018F000016841F480410160006800F4804000907C
:101900001648001F016841F0805101600068002204
:1019100000F0805000900F216FF00B0000F02EF8C7
:1019200000220F216FF00A0000F028F800220F219A
:101930006FF0090000F022F800220F21501F00F084
:101940001DF800220F21101F00F018F800220F21AF
:10195000BDE80840901E00F011B800004438024075
:10196000002809DB00F01F0201219140400980009E
:1019700000F1E020C0F8001170470000F0B40E4BF9
:101980001B680C46C3F30223C3F10705042D00D9DD
:101990000425191D072901D2002300E0DB1E0126C2
:1019A00006FA05F1491E214099409E40761E1640D8
:1019B0003143F0BC01F033BE0CED00E0064900F00D
:1019C000070208684FF6FF03184040EA0220034A66
:1019D00010430860704700000CED00E00000FA05BD
:1019E0002DE9F0470E46050065D0DFF81481D8F8E0
:1019F0000000F7B200F00F00B04207D288F8007084
:101A0000D8F8000000F00F00B04254D128683D4CD7
:101A1000810712D5400703D5206840F4E0502060CC
:101A20002878000703D5206840F4604020602068D3
:101A3000A96820F0F000084320602878C0072DD066
:101A4000304968680839012812D0022813D00328C9
:101A500011D00968890700292DDA216821F00301D6
:101A600001432160FFF7FAFE814641F2883A0EE019
:101A700009688903EFE709688901ECE7FFF7EEFEE3
:101A8000A0EB0901514502D90320BDE8F087206889
:101A9000696800F00C00B0EB810FEFD1D8F80010AE
:101AA000404601F00F01B14207D90770006800F00D
:101AB0000F00B04201D00120E7E72878400705D5A4
:101AC0002068E96820F4E050084320602878000787
:101AD00006D52068296920F4604040EAC1002060F2
:101AE00000F036F82168084AC1F30311515CC84080
:101AF000064908600020FFF7D9FE0020C5E7000076
:101B0000003C024008380240A03800088400002051
:101B10000448054900680968044AC1F38221515C00
:101B2000C84070478400002008380240B0380008E0
:101B30000448054900680968044AC1F34231515C10
:101B4000C84070478400002008380240B0380008C0
:101B5000154810B5006810F00C02144813D0144951
:101B6000042A0FD0082A0ED10F4C241F22682368A4
:101B700002F03F025B0207D52068C0F38810A0FB8B
:101B8000010106E0084610BD2168C1F38811A1FBE0
:101B900000010023FEF714FB2168C1F30141491C39
:101BA0004900B0FBF1F010BD083802400024F400F9
:101BB00040787D012DE9F84F050076D02878DFF8D0
:101BC000F8B2BE4CC00749D0DBF800105846C1F34C
:101BD0008101012908D00068C0F3810002280AD1E0
:101BE000201D0068400206D52068800336D568684D
:101BF0000028E2D032E06868B0F5803F10D0B0F540
:101C0000A02F206810D020F480302060206820F4BD
:101C1000802020606868A0B1FFF720FE06460CE037
:101C2000206840F48030F4E740F480202060F7E73B
:101C3000FFF714FE801B642873D820688003F7D553
:101C40000CE0FFF70BFE064605E000BFFFF706FEBF
:101C5000801B6428F0D820688003F7D42878DFF848
:101C6000608280074FF000093ED5DBF8001058462F
:101C700011F00C0F09D00068C0F3810002280BD1CD
:101C80008D48001F0068400206D42068800715D5E3
:101C9000E868012809D111E0E868B8B10120C8F866
:101CA0000000FFF7DBFD064605E002E1FFF7D6FD89
:101CB000801B0228C0D820688007F7D520682969D2
:101CC00020F0F80040EAC10020600DE0C8F8009064
:101CD000FFF7C4FD064604E0FFF7C0FD801B0228A5
:101CE0001FD820688007F7D42878000722D5724EC5
:101CF000744869696C3671B101210160FFF7AEFD6E
:101D0000074604E0FFF7AAFDC01B022809D8306887
:101D10008007F7D50EE0C0F80090FFF79FFD07465B
:101D200005E083E0FFF79AFDC01B02287ED83068EB
:101D30008007F7D42878400768D5DFF87CA1002712
:101D40000AF1380ADAF80000C0000BD4DAF8001003
:101D500041F08051CAF80010DAF80000012700F0C5
:101D600080500090584E3068C00510D4306840F460
:101D700080703060FFF772FD009005E0FFF76EFDA8
:101D80000099401A022851D83068C005F6D54A4E4D
:101D9000A868683601280FD00528306810D020F0D8
:101DA00001003060306820F004003060A868B8B1ED
:101DB000FFF754FD00900FE0306840F00100F4E7B9
:101DC00040F004003060F7E7FFF748FD0099411A42
:101DD00041F28830814264D830688007F4D50EE043
:101DE000FFF73CFD009007E0FFF738FD0099411A2E
:101DF00041F28830814254D830688007F4D42FB142
:101E0000DAF8001021F08051CAF80010A869C0B3B8
:101E1000DBF80010C1F3810102294AD002284846AC
:101E200007D0C8F86000FFF719FD00E039E005466B
:101E30003AE04746C8F86000FFF710FD064604E0A8
:101E4000FFF70CFD801B02282BD820688001F7D4F7
:101E5000D5E907010843A96A1C4A490802EB014178
:101E60006A6A41EA8211084395F82C1040EA016140
:101E70001148001F016001203866FFF7EFFC05469E
:101E800005E014E0FFF7EAFC401B022809D82068AF
:101E90008001F7D50BE000BFFFF7E0FC401B0228F4
:101EA00002D90320BDE8F88F20688001F4D4002017
:101EB000F8E70120F6E70000083802400038024049
:101EC00000004742800E4742007000400000FFFFC4
:101ED00010B5401EB0F1807F01D3012010BD4FF03E
:101EE000E02460610F21601701F099FB0020A061E0
:101EF00007202061002010BD7047704710B590F892
:101F00003C20012A22D0012280F83C20CA688C683B
:101F100022F4407222434C6822F4806222430C680F
:101F200022F4006222430C6922F4805222434C695D
:101F300022F400522243C969002322F480420A435A
:101F400001684A6480F83C30002010BD022010BDBA
:101F500070B590F83C20012A19D0012400F83C4FBC
:101F60000222427050F83C3C5A689D6822F070068C
:101F70000A684968324325F0800529435A6050F8C1
:101F80003C2C9160447000210170084670BD022015
:101F900070BD10B5040003D094F83D0010B107E007
:101FA000012010BD002084F83C00204600F00CF811
:101FB000022084F83D00211D206800F0DFFF012091
:101FC00084F83D00002010BD08B501681948814221
:101FD00001D1194819E01848001FB1F1804F14D001
:101FE000164A914219D1016841F00201016000686E
:101FF000002200F0020000900F211D20FFF7BEFC20
:10200000BDE808401D20FFF7ABBC016841F00101AD
:102010000160006800F0010009E0094A914207D11F
:10202000016841F004010160006800F004000090C4
:1020300008BD000000000140443802400004004098
:1020400000080040022180F83D1001688A6802F013
:102050000702062A03D00A6842F001020A60012141
:1020600080F83D10002070470168CA6842F0010204
:10207000CA600068816801F00701062903D0016881
:1020800041F0010101600020704770B5044690F8EE
:102090003C00012817D0012584F83C50022084F828
:1020A0003D002068826822F0770222F47F4282603D
:1020B0000868502830D00DDC20284DD005DC98B3BE
:1020C00010283BD148E0022070BD302844D0402881
:1020D00034D139E0602828D0702806D0B0F5805F70
:1020E0002CD0B0F5005F29D10AE0CB68D1E90121FD
:1020F000206800F0B4FF2068816841F0770109E0B2
:10210000CB68D1E90121206800F0A9FF206881682F
:1021100041F48041816011E0CA684968206801F09B
:1021200073F85021206807E016E0CA684968206803
:1021300001F07BF86021206800F09BFF84F83D509F
:10214000002084F83C0070BDCA684968206801F02E
:102150005BF840212068EFE7226801461046EBE774
:102160002DE9F0410D46040003D094F83D0018B16C
:1021700008E00120BDE8F081002084F83C00204602
:1021800000F03AF8022084F83D002068816844F2AB
:10219000070291438160211D206800F0EFFE226854
:1021A00090689169166A2B68AF69034340F2033067
:1021B000814341EA0721A868EF6908434FF6FC41D3
:1021C0008843E96840EA0720014328692F6A000133
:1021D00040EA0730084369686D6926F0AA0646EAB6
:1021E00005152943936022689061206801620120EF
:1021F00084F83D000020BDE7F0B587B00446142107
:102200006846FEF715F81849206888422AD1174811
:102210000024016841F002010160006800F0020042
:10222000059012481438016841F00401016000680B
:10223000022500F0040005904020CDE9000502AA27
:1022400003260B4F82E8700069463846FFF728FAEC
:1022500080200090CDE90154CDE903466946384617
:10226000FFF71EFA07B0F0BD0004014044380240F9
:102270000008024010B50446006891B1042904D05A
:102280000122002100F0DEFE206801225FF004013F
:1022900000F0D8FE2068016841F0010101600020D3
:1022A00010BD01220021F3E7704770B504460068B5
:1022B00001694FF00005C943890715D4C168C943B6
:1022C000890711D4E91E0161012020772068806907
:1022D0008007204602D0FFF7E7FF04E000F0D8F8BF
:1022E000204600F05AF9257720680169C94349075B
:1022F00017D4C168C943490713D46FF004010161C1
:10230000022020772068806910F4407F204602D0A8
:10231000FFF7CAFF04E000F0BBF8204600F03DF9EB
:10232000257720680169C943090716D4C168C943E4
:10233000090712D46FF0080101610420207720689A
:10234000C0698007204602D0FFF7AEFF04E000F02E
:102350009FF8204600F021F9257720680169C943DC
:10236000C90617D4C168C943C90613D46FF0100158
:102370000161082020772068C06910F4407F204662
:1023800002D0FFF791FF04E000F082F8204600F051
:1023900004F9257720680169C943C90708D1C168D4
:1023A000C943C90704D1891E0161204600F018F90C
:1023B00020680169C943090609D4C168C9430906EF
:1023C00005D46FF0800101612046FFF795FD20687C
:1023D0000169C943490609D4C168C943490605D4FE
:1023E0006FF040010161204600F046FA2068016963
:1023F000C94389060BD4C168C943890607D46FF065
:10240000200101612046BDE87040FFF776BD70BD38
:1024100030B587B0044614216846FDF709FF2468EB
:10242000174D0021174802220123AC4210D1046845
:1024300044F010040460006800F0100005901002E1
:102440000090CDE90121CDE9031369460E4812E061
:10245000B4F1804F11D1046844F0010404600068B5
:1024600000F00100059020200090CDE90121CDE988
:10247000031369460548FFF713F907B030BD0000A4
:1024800000000140303802400010024000000240CD
:10249000704770B5044690F83C000D4601280DD0F9
:1024A000012684F83C60022084F83D0042B1042AF1
:1024B00018D0082A2AD00C2A4DD139E0022070BD4C
:1024C000206800F0DFFD2068816941F0080181612A
:1024D0002068816921F004018161206881692A698D
:1024E000114311E0206800F0FDFD2068816941F48E
:1024F000006181612068816921F4806181612068C7
:1025000081692A6941EA0221816124E0206800F0A2
:102510001FFE2068C16941F00801C1612068C169DE
:1025200021F00401C1612068C1692A69114311E0E9
:10253000206800F041FE2068C16941F40061C1617A
:102540002068C16921F48061C1612068C1692A697C
:1025500041EA0221C16184F83D60002084F83C001A
:1025600070BD10B5040003D094F83D0010B107E031
:10257000012010BD002084F83C00204600F00CF83B
:10258000022084F83D00211D206800F0F7FC0120A6
:1025900084F83D00002010BD7047704710B5044618
:1025A0000068012200F04EFD0B492068884202D0ED
:1025B0000A49884203D1416C41F4004141642068DA
:1025C000816801F00701062903D0016841F001018B
:1025D0000160002010BD0000000001400004014027
:1025E00070B599492DED048B0068096888427CD14B
:1025F0009FED968A964C84ED088A84ED098A84EDD5
:102600000A8A01F01BF910EE100AFDF7D0FF41EC29
:10261000100B84ED140B9FED8F1B53EC112BFDF76A
:10262000B9FE41EC190BFDF7A3FF04F10A05C0B296
:102630002870FDF790FF53EC192BFDF7A8FE9FEDD6
:10264000871B53EC112BFDF7A5FEFDF791FF68707A
:10265000207830B17C48012302222946C03000F0A6
:10266000E1F97B4D3835288840BA00B200EE100AF7
:1026700005F13000F8EEC00AC0ED000A698849BAD9
:1026800009B200EE101AB8EEC00A80ED010A80EE21
:10269000081A9FED740A71EE408A80EE880AC4ED34
:1026A000068A10EE100AFDF782FFC4E91C012979A1
:1026B00009B1012000E000206070012900D12170E3
:1026C00000287DD0E06AD4ED080A00EE100AB8EECA
:1026D000C00AF4EEC00AF1EE10FA71DD00F10A0151
:1026E000D4ED090A00EE101A00E0A9E0B8EEC00A25
:1026F000F4EEC00AF1EE10FA62DD00EE100AD4ED3D
:102700000A0AB8EEC00AF4EEC00AF1EE10FA57DD7C
:1027100094ED070AC4ED078A38EEC00A10EE100ADD
:10272000FDF745FF41EC190B18EE900AFDF73FFF4E
:1027300041EC100BB0EE491AF0EE691AFEF778FB87
:1027400051EC100BFDF714FF00EE100A4649B8EEED
:10275000C00A10EE100A84ED0D0A884202DD9FEDDA
:10276000430A06E010EE100A4149884203D99FED62
:10277000410A84ED0D0A344DA03D032095ED068BF2
:1027800005EBC001401E11ED020B012881ED000B8D
:10279000F6DA606BFDF70BFFC5E9000151EC180B91
:1027A000FDF7E6FE00B200F03DFB94ED140B53EC98
:1027B000102B94ED1C0B51EC100BFDF7E5FD00E028
:1027C0003CE0FDF737FF0546FDF7F1FE94ED121BE7
:1027D00053EC112BFDF7D8FDFDF72CFF06462846DC
:1027E000FDF7E5FEC4E912013046FDF7E0FE41ECDD
:1027F000180B2846FDF7DBFE41EC100BB0EE481A33
:10280000F0EE681AFEF77AF851EC100BFDF7B0FE07
:10281000A0806188084480B24FF47A716080884259
:1028200001D9618002E008B900206080608800B2B0
:10283000BDEC048BBDE8704000F0DABA0020F7E789
:10284000BDEC048B70BD0000280100200000C842D0
:1028500000000020000000000000494000000000CF
:10286000000059400000B442000070420000704275
:10287000000070C2000070C27047704770B504005D
:1028800004D094F83900002510B106E0012070BD95
:1028900084F83850204600F023F8242084F83900CA
:1028A0002068C16821F40051C160204600F02EFD6F
:1028B0002068016921F4904101612068416921F09B
:1028C0002A0141612068C16841F40051C160E5639B
:1028D000202084F8390084F83A00002070BD000000
:1028E00070B586B0064614216846FDF7A1FC214963
:1028F000306888423BD120480025016841F400310E
:102900000160006800F4003005901B481038016831
:1029100041F0010101600068694600F00100059086
:102920000C200090022001900120029003200390CF
:10293000072004901148FEF7B3FE124C10482060A7
:102940004FF00060C4E901054014C4E90350801051
:102950006561C4E906504FF44030C4E908052046DB
:10296000FEF7F8FD08B1FEF724FD7463A66306B018
:1029700070BD0000004400404038024000000240AA
:102980008860024028020020F8B5044690F83A001A
:1029900020283CD1C1B3BAB394F83800012836D00E
:1029A000012084F83800A162A2850025E563222079
:1029B00084F83A00636B1748D863636B1648186451
:1029C000636B1648D864606B134605650846666BF2
:1029D000216802463046091DFEF726FE2068016880
:1029E0004168009184F83850C16841F48071C16039
:1029F0002068416941F0010141612068416941F06D
:102A0000400141610020F8BDFFE70120FBE7022003
:102A1000F9E7000099320008D53200084F3200086B
:102A2000704770472DE9F843044690F839001F4677
:102A300016460D46202850D1A5B19EB194F8380015
:102A400001284AD0012084F838004FF00008C4F86B
:102A50003C80212084F83900FEF700FFA6848146DF
:102A6000E68426E00120BDE8F883E08C401EE08487
:102A7000A0684B46B0F5805F4FF000024FF0800138
:102A80002046009703D000F097FDE8B90DE000F074
:102A900093FDC8B928882168C0F308004860206900
:102AA00008B16D1C05E0AD1C03E0216815F8010BB1
:102AB0004860E08C0028D8D14B46002240212046B7
:102AC000009700F079FD08B10320CCE7202084F8BE
:102AD000390084F838800020C5E70220C3E7FEE70C
:102AE000F0B587B014216846FDF7A2FB34480024F6
:102AF000016841F001010160016801F001010591E7
:102B0000016841F010010160016801F010010591B8
:102B1000016841F002010160016801F002010591C4
:102B2000016841F008010160016801F008010591A8
:102B3000016841F0040101600068224E00F00400C9
:102B40004FF400650590002229463046FEF780FECE
:102B50001D4F00224FF47E413846FEF779FE009566
:102B60000125CDE90154694630460394FEF798FDEE
:102B70004FF46066CDE90064694614480294FEF79C
:102B80008FFDCDE900650326CDE90246694638464A
:102B9000FEF786FD4FF45040CDE90005CDE9025621
:102BA00069463846FEF77CFD68030090CDE9015484
:102BB000694638460394FEF773FD07B0F0BD000088
:102BC0003038024000100240000C02400004024075
:102BD00010B596B000240F9410941194129413948D
:102BE0001C2108A81494FDF723FB20216846FDF75B
:102BF0001FFB1F481D4901605421C0E9011440F228
:102C0000E731C0E9031444618461FFF7C2F94FF46E
:102C100080500F900FA91648FFF737FA1448FFF7B6
:102C2000A0FC139413A912481494FFF791F96020A3
:102C3000CDE908040A940B940C940D94002208A981
:102C40000B480E94FFF725FC00944FF40050CDE99B
:102C50000440029401940394694605480794FFF7E1
:102C60004DF90348FFF7D4FB16B010BD000001403A
:102C7000A800002010B58EB0002407940894099491
:102C80000A940B941C2168460C94FDF7D1FA17485E
:102C90004FF08041016040F28F61C0E9011440F2C1
:102CA000E731C0E903148461FFF773F94FF48050F2
:102CB000079007A90D48FFF7E8F90C48FFF751FC0A
:102CC0000B940BA909480C94FFF742F96020CDE959
:102CD000000402940022694604480494FFF7D9FBDB
:102CE0000248FFF795FB0EB010BD0000E800002081
:102CF00010B586B000241248009401940294039405
:102D000004940E490594016042F2CF01C0E9011418
:102D100040F2E731C0E903148461FFF73AF94FF458
:102D20008050009069460648FFF7AFF9049404A963
:102D300003480594FFF70CF906B010BD00040040ED
:102D40002801002010B586B000241048009401949A
:102D50000294039404940C490594C0E9001484601F
:102D6000C46004618461FFF714F94FF4805000904F
:102D700069460648FFF789F9049404A903480594B5
:102D8000FFF7E6F806B010BD00080040680100201B
:102D900010B58CB024216846FDF74AFA0024124889
:102DA000099410490A94C0E9001441F28831C0E93D
:102DB00002410461446184610120CDE90004CDE950
:102DC00002040494CDE90540079469460648089436
:102DD000FFF7C6F9099409A903480A94FFF7B8F860
:102DE0000CB010BD00040140A8010020FEE77047B0
:102DF00010B504000848094B4FF40061006802D484
:102E00004463002202E06242426301221846FEF758
:102E10001FFD0348848110BDA8000020001002405F
:102E20000000002000EE100ADFED150ADFED161A93
:102E3000B8EEC00A30EE200ABDEEC00A10EE100A4D
:102E400001B2104890ED040AD0ED050A30EE601A88
:102E500000EE101AB8EEC00A21EE001A81EE210A27
:102E600030EE200ADFED090A20EE200ABDEEC00A8E
:102E700010EE101A016308B20549096848637047EB
:102E80000000B4420000002000003443000048422B
:102E9000E800002070477047FEF7E6BC30B593B0FD
:102EA00030216846FDF7C4F914210CA8FDF7C0F9DC
:102EB00018480025016841F080510160006800F069
:102EC000805011901448016841F48041016000680D
:102ED000022400F4804011900120039010200490FF
:102EE000009406940820CDE907505420CDE9090448
:102EF00004200B906846FEF75DFE0CA90F2081E8C8
:102F00003100E002CDE90F0502210CA8FEF768FDB3
:102F100013B030BD403802400070004010480168D6
:102F200041F4700101600F48016841F00101016046
:102F30000C4A00210832116002680B4B1A400260F3
:102F4000031D0A4A1A60026822F4802202600548C2
:102F50000C30016002495806803908607047000053
:102F600088ED00E000380240FFFFF6FE103000243C
:102F70000148FFF79AB9000028010020F0B5026867
:102F8000254C264D264E274F274B4FF0804CA04214
:102F900009D0604507D0A84205D0B04203D0B8425E
:102FA00001D0984204D122F0700E4A6842EA0E0223
:102FB000A0421BD0604519D0A84217D0B04215D00E
:102FC000B84213D0984211D0184DA8420ED0184DD7
:102FD000A8420BD0174DA84208D0174DA84205D0E3
:102FE000164DA84202D0164DA84203D122F44075D6
:102FF000CA682A434D6922F080022A4302608A6827
:10300000C2620A688262A04201D0984201D1096975
:10301000016301214161F0BD000001400004004056
:1030200000080040000C0040000401400040014046
:10303000004401400048014000180040001C0040CE
:103040000020004010B501F01F030121046A9940DF
:103050008C430462016A9A401143016210BD10B5AD
:10306000846842EA032224F47F440A4322438260B4
:1030700010BD826822F070020A4342F007018160AD
:1030800070470000F0B5026A22F001020262036A92
:1030900042688469124E24F073050C682C4323F0B7
:1030A00002058B682B430D4DA84201D0B04205D1DB
:1030B00023F00807CB683B4323F00403A84201D068
:1030C000B04205D14D6922F4407215438A692A4302
:1030D00042608461496841630362F0BD00000140C1
:1030E00000040140F0B5026A22F010020262026A96
:1030F000436884690D6824F4E64444EA05248D6835
:1031000022F0200242EA05120F4D104EA84201D0D3
:10311000B04206D1CF6822F0800242EA071222F0C4
:103120004002A84201D0B04207D14D6923F4406368
:1031300043EA85038D6943EA8503436084614968F6
:1031400081630262F0BD0000000001400004014004
:10315000F0B5026A22F480720262026A4368C469AE
:1031600022F4007224F073050C68124E2C438D6813
:1031700042EA05220E4DA84201D0B04206D1CF68E6
:1031800022F4006242EA072222F48062A84201D0BF
:10319000B04207D14D6923F4405343EA05138D69CA
:1031A00043EA05134360C4614968C1630262F0BD2C
:1031B000000001400004014030B5026A22F4805250
:1031C0000262046A4268C3690D6823F4E64343EA75
:1031D00005238D6824F4005444EA0534084DA842C0
:1031E00002D0084DA84204D14D6922F4804242EA3F
:1031F00085124260C36149680164046230BD000009
:10320000000001400004014010B5036A046A24F084
:1032100001040462846924F0F00444EA021423F0F7
:103220000A020A438461026210BD10B5036A23F0EA
:10323000100303628369046A23F4704343EA023291
:1032400024F0A00343EA01118261016210BD70B550
:10325000846B2068406994F83910C0F3C0100025D1
:10326000212904D118B1E584204600F046F82068F1
:10327000406994F83A10C0F38010222904D118B1A3
:10328000E585204600F02BF8E06B40F01000E0638D
:103290002046FFF7F2FA70BD10B50146806B096851
:1032A0000968C90513D40021C1850168CA6822F4E0
:1032B0008072CA6001684A6922F001024A610168AD
:1032C0004A6922F040024A61202180F83A10FFF753
:1032D000A7FB10BD10B5806BFFF7A3FB10BD016805
:1032E000CA6822F49072CA6001684A6922F0010239
:1032F0004A61202180F83A1070470168CA6822F0BC
:10330000C002CA60202180F8391070472DE9F041D1
:10331000044600680169E26821F4405111430161EB
:103320002169A068E2690843616911432268084382
:10333000D16849F20C6399430143D1602068416927
:10334000A26921F4407111434161E2696425B2F53B
:10335000004F9748974922684FF032083FD08A4281
:1033600001D082427CD1FEF7E3FB00EBC00101EB10
:10337000001061688900B0FBF1F6FEF7D9FB00EBA5
:10338000C00101EB001061688900B0FBF1F0B0FBF7
:10339000F5F06FF01801484306EB800108EB0110CF
:1033A000B0FBF5F000F0F006FEF7C2FB00EBC00149
:1033B00001EB001061688900B0FBF1F0B0FBF5F0A3
:1033C00006EB0016FEF7B4FB00EBC00101EB0010AA
:1033D00061688900B0FBF1F7FEF7AAFBD2E08A42F0
:1033E00001D082423DD1FEF7A3FB00EBC00101EB0F
:1033F000001061684900B0FBF1F0B0FBF5F0060188
:10340000FEF796FB00EBC00101EB0010616849007C
:10341000B0FBF1F7FEF78CFB00EBC00101EB0010F5
:1034200061684900B0FBF1F0B0FBF5F06FF01801F6
:10343000484307EB800108EBC100B0FBF5F000F05A
:10344000F80006EB4006FEF773FB00EBC00101EB52
:10345000001061684900B0FBF1F7FEF769FB3CE042
:1034600055E0FEF755FB00EBC00101EB0010616871
:103470004900B0FBF1F0B0FBF5F00601FEF748FBA8
:1034800000EBC00101EB001061684900B0FBF1F7EF
:10349000FEF73EFB00EBC00101EB00106168490044
:1034A000B0FBF1F0B0FBF5F06FF01801484307EB0B
:1034B000800108EBC100B0FBF5F000F0F80006EB6E
:1034C0004006FEF725FB00EBC00101EB0010616830
:1034D0004900B0FBF1F7FEF71BFB00EBC00101EB6D
:1034E000001061684900B0FBF1F0B0FBF5F06FF03F
:1034F0001801484307EB800108EBC100B0FBF5F071
:1035000000F00700216830448860BDE8F081FEF7D4
:10351000FFFA00EBC00101EB001061688900B0FB0D
:10352000F1F6FEF7F5FA00EBC00101EB001061685F
:103530008900B0FBF1F0B0FBF5F06FF018014843E3
:1035400006EB800108EB0110B0FBF5F000F0F0068F
:10355000FEF7DEFA00EBC00101EB001061688900A4
:10356000B0FBF1F0B0FBF5F006EB0016FEF7D0FA79
:1035700000EBC00101EB001061688900B0FBF1F7BE
:10358000FEF7C6FA00EBC00101EB0010616889008C
:10359000B0FBF1F0B0FBF5F06FF01801484307EB1A
:1035A000800108EB0110B0FBF5F000F00F00A9E777
:1035B00000140140001001402DE9F04198461746E3
:1035C0000E460446069D1DE0681C1BD02DB1FEF77B
:1035D00045F9A0EB0800A84214D92068C16821F47D
:1035E000D071C1602068416921F001014161202052
:1035F00084F8390084F83A00002084F83800032069
:10360000BDE8F0812068006836EA000004D00020A0
:10361000B842D9D00020F3E70120F9E7FEE7090717
:10362000090E002804DB00F1E02080F80014704748
:1036300000F00F0000F1E02080F8141D704702E058
:1036400008C8121F08C1002AFAD17047704700202D
:1036500001E001C1121F002AFBD1704708B5FEF737
:103660000BF9FFF71BFCFFF73BFA26480024016823
:1036700041F4001101600068224600F4001000903F
:103680000F211020FEF77AF91020FEF769F9FFF7F5
:103690009FFAFFF7EFFAFFF72BFB1C481A4901606E
:1036A0004FF4E131C0E901140C21C460C0E90441C8
:1036B0008461C461FFF7E2F8FFF76AFBFFF742FBA2
:1036C00000211348FEF76AFF1148FEF7BBFC1048C3
:1036D0004030FEF7B7FC0E4800214030FEF75EFF99
:1036E0000B488030FEF7C0FC084800214038FEF748
:1036F000C1FD052207490548FFF746F9FDF7E8F83F
:10370000FEE700003038024000440040E80100209D
:10371000A80000203800002010B52DED048BB0EE7D
:10372000418AF0EE618AB0EE409AF0EE609A53EC76
:10373000182B51EC190BFCF765FF06D2B0EE490AC5
:10374000F0EE690ABDEC048B10BDB0EE480AF0EE55
:10375000680AF7E710B52DED0C8BB0EE41AAF0EE3C
:1037600061AAB0EE408AF0EE608AB0EE449AF0EEC4
:10377000649AB0EE43BAF0EE63BAB0EE42CAF0EE2D
:1037800062CA9FED2ADB53EC1A2B51EC180BFCF7A5
:1037900021FF06D2B0EE4D0AF0EE6D0ABDEC0C8BA7
:1037A00010BD53EC1C2B51EC180BFCF713FF12D27D
:1037B00053EC1A2B51EC1C0BFCF7E6FD41EC190BFA
:1037C00053EC1A2B51EC180BFCF7DEFD41EC100BFF
:1037D00053EC192B22E053EC1B2B51EC180BFCF78C
:1037E000F9FE02D29FED130BD8E753EC192B51ECE5
:1037F000180BFCF7EFFECDD253EC1B2B51EC190B41
:10380000FCF7C2FD41EC1A0B53EC192B51EC180BD1
:10381000FCF7BDFD53EC1A2B41EC100B51EC100BD7
:10382000FCF72AFE41EC100BB8E700000000000096
:1038300000000000000000000000F03F104910B53B
:103840000868104C80B2002220810A60FCF783FED9
:103850009FED0D1B53EC112BFCF79CFD94ED101B01
:1038600053EC112BFCF796FD9FED091B53EC112B2C
:10387000FCF702FEFCF7DEFE00EE100A10BD0000B1
:103880002404014000000020CDCCCCCCCCCCF43FB3
:103890000000000000A6A240000610160006101648
:1038A00000000000000000000102030406070809F0
:1038B0000000000001020304D838000800000020C6
:1038C000880000003E3600086039000888000020AB
:1038D000000600004E360008000000000000000056
:1038E0000000000000000000CDCC2C40CDCC0C3FEF
:1038F00000000000000000000000000000000000C8
:1039000000000000140000000000000000000000A3
:10391000000000000000000097D17E5AFB21094002
:103920000000000000000000000000000000000097
:103930000000000000000000000000000000000087
:103940000000000000000000000000000000000077
:103950000100000010000000000000000024F4003E
:040000050800018965
:00000001FF
