:020000040800F2
:10000000700600209D0100082F2000081F1D000819
:100010002D200008E5050008F52800080000000074
:100020000000000000000000000000006F21000838
:10003000E9060008000000006D2100087121000899
:10004000B7010008B7010008B7010008B7010008B0
:10005000B7010008B7010008B7010008B7010008A0
:10006000B7010008B7010008B7010008B701000890
:10007000B7010008B7010008B7010008B701000880
:10008000E9050008B7010008B7010008B70100083A
:10009000B7010008B7010008B7010008B701000860
:1000A000B7010008B7010008B7010008B701000850
:1000B000B701000849220008B7010008B70100088D
:1000C000B7010008B7010008B7010008B701000830
:1000D000B7010008B7010008B7010008B701000820
:1000E000B7010008B7010008B7010008B701000810
:1000F000B7010008B7010008B7010008B701000800
:10010000B7010008B7010008B7010008B7010008EF
:10011000B7010008B7010008B7010008B7010008DF
:10012000B7010008B7010008B7010008B7010008CF
:10013000B7010008B7010008B7010008B7010008BF
:10014000B7010008B7010008B7010008B7010008AF
:10015000B7010008B7010008B7010008B70100089F
:10016000B7010008B7010008B7010008B70100088F
:10017000B7010008B7010008B7010008000000003F
:10018000B7010008B7010008DFF80CD000F018FA3A
:1001900000480047CD290008700600200648804727
:1001A00006480047FEE7FEE7FEE7FEE7FEE7FEE75C
:1001B000FEE7FEE7FEE7FEE7F521000889010008FB
:1001C0002DE9F05F0546002092469B46884606468C
:1001D000814640241BE0284641464746224600F01F
:1001E0004BF953465A46C01A914110D3114618464E
:1001F000224600F032F92D1A67EB01084F462246DD
:100200000120002100F029F917EB00094E41201EC2
:10021000A4F10104DFDC484631462A464346BDE8E6
:10022000F09FD2B201E000F8012B491EFBD27047CB
:100230000022F6E710B513460A4604461946FFF7B2
:10024000F0FF204610BD2DE9FE4F81EA030404F0C3
:10025000004421F0004100944FF0000B23F00043D4
:1002600050EA01045ED052EA03045BD0C3F30A549F
:10027000C1F30A552C44A4F2F3340194A0FB0254B8
:10028000C1F3130141F48011C3F3130343F480134A
:1002900001FB024400FB034E840A970A44EA81549E
:1002A00047EA8357A4FB076802958D0A05FB07857B
:1002B0004FEA932C04FB0C542705029D4FEA065885
:1002C00047EA1637B5EB08056EEB070C870E920E62
:1002D00047EA811742EA8312A7FB0201B6EB0B0142
:1002E00064EB00042B0D43EA0C335E1844EB1C5006
:1002F000DA465146E7FB0201C5F313044FEA0B331C
:1003000043EA14534FEA0432019C43EA0603A4F182
:100310000C040294009CCDE900B400F003F903B092
:10032000BDE8F08F00200146F9E72DE9F04D81EAA4
:10033000030404F0004B21F0004514464FF0000A7E
:1003400023F0004150EA050220D054EA01021DD0FA
:10035000C5F30A570246C5F31303C1F31300C1F3F3
:100360000A5640F4801543F48013A7EB0608101BCF
:10037000D64608F2FD3873EB050002D308F10108F8
:1003800001E092185B41B8F1000F03DA002001464A
:10039000BDE8F08D00204FF48011064684460EE043
:1003A000171B73EB050705D3121B63EB050306430D
:1003B0004CEA010C49084FEA300092185B4150EAC0
:1003C0000107EDD152EA030012D082EA040083EA69
:1003D0000501084305D0101BAB4106D201220023C2
:1003E00006E000224FF0004302E06FF001025310DC
:1003F0001AEB06004CEB085110EB0A0041EB0B0125
:10040000BDE8F04D00F07FB80EB540F233410291E7
:100410000021CDE900110A460B4600F083F803B035
:1004200000BD01F0004330B421F0004150EA010268
:1004300006D00A0DA2F56072C1F31301002A02DC96
:1004400030BC00207047440F44EAC104C100E018EA
:1004500030BC00EBC25000F01FB8202A04DB203A69
:1004600000FA02F1002070479140C2F1200320FA07
:1004700003F3194390407047202A04DB203A21FA05
:1004800002F00021704721FA02F3D040C2F12002AD
:1004900091400843194670470029A8BF7047401C87
:1004A000490008BF20F00100704710B4B0FA80FC8A
:1004B00000FA0CF050EA010404BF10BC704749B1C7
:1004C000CCF1200421FA04F411FA0CF118BF012137
:1004D00021430843A3EB0C01CB1D4FEA00614FEA17
:1004E000102042BF002010BC704700EBC3501044E6
:1004F0000029A4BF10BC7047401C490008BF20F071
:10050000010010BC704710B5141E73F1000408DA26
:10051000401C41F1000192185B411A4301D120F0C7
:10052000010010BD2DE9F04D92469B4611B1B1FA84
:1005300081F202E0B0FA80F220329046FFF78DFFA0
:1005400004460F4640EA0A0041EA0B0153465A4668
:10055000084313D0114653EA010019D0C8F14002F4
:100560005046FFF789FF05460E465046594642461B
:10057000FFF773FF084305D0012004E02046394609
:10058000BDE8F08D0020054346EAE0762C43374372
:100590000A986305E40AA0EB08000022FD0A44EA79
:1005A00047540A3002D500200146E9E70105101939
:1005B0006941DDE9084500196941BDE8F04DA2E750
:1005C000064C074D06E0E06840F0010394E80700A0
:1005D00098471034AC42F6D3FFF7DAFDC02B000881
:1005E000E02B0008FEE70000014800F07FB80000A3
:1005F0001002002001681823CAB2103AB2FBF3F2CD
:10060000054B6FF30901032A9B5CC36500D9091DE3
:100610008165084670470000A02B000810B5014610
:1006200000208B698A6A4FF0C07453B1B3F5005F44
:1006300015D072B1012A0CD0022A0AD0032A09D19E
:1006400004E01AB1012A06D0022A03D1C96AC901FD
:1006500000D5012010BDC96AA142FAD010BD002A00
:10066000F7D0012AF2D0022AF3D0032AF3D010BD2A
:1006700030B50468256825F480252560046863602A
:100680008368402B036803D099600068C26030BD66
:100690009A600068C16030BD064A10B553680649CB
:1006A000064C0968B1FBF4F141435068C01A884216
:1006B000FBD310BD001000E08000002040420F007E
:1006C00007480168C9010AD4016841F080710160DE
:1006D000044800214160016841F001010160704758
:1006E000FCED00E0001000E0704770472DE9F84392
:1006F00004464FF00009CDF8009063484FF41651BE
:10070000A56D0068B0FBF1F72E6894F85C10082026
:1007100000FA01F131420FD021680A6852070BD567
:100720000A6822F004020A6094F85C108840A8600D
:10073000606D40F00100606594F85C104FF00108B6
:1007400008FA01F0304208D021684969090604D549
:10075000A860606D40F00200606594F85C100420B1
:100760008840304208D021680968890704D5A8600C
:10077000606D40F00400606594F85C1010208840C3
:10078000304218D021680968090714D5A86020688C
:100790000168490304D50068000308D5A16C07E08F
:1007A0000168C90503D4016821F008010160216CCA
:1007B00009B12046884794F85C10202088403042D8
:1007C00031D021680968C9062DD5A86094F8350094
:1007D00005282068016806D0490347D50068000352
:1007E0001DD4616C1CE021F0160101602068416994
:1007F00021F080014161206C08B9A06C20B1206813
:10080000016821F00801016094F85C103F208840E5
:10081000A86084F8349084F83580216D1FE0E16B86
:1008200009B120468847606D00282BD0606DC00755
:1008300014D0052084F835002068016821F00101FA
:1008400001600098401C0090B84203D820680068FE
:10085000C007F6D184F8349084F83580E16C002923
:1008600010D001B02046BDE8F04308470168C90533
:10087000D5D4016821F01001016084F8349084F827
:100880003580CCE7BDE8F883800000202DE9F041F9
:10089000044600F083F906465CB1002584F8345024
:1008A000022084F835002068016821F00101016010
:1008B0000DE00120BDE8F08100F070F9801B0528F3
:1008C00005D920206065032084F83500F2E7206810
:1008D0000068C007F0D12268116820480140D4E9BF
:1008E00001031843D4E903363343184363691843BB
:1008F000A3691843E3691843236A18430843616AEC
:10090000042903D1D4E90B1319430843106020686C
:100910004069666A20F0070130460E43012704282B
:100920000CD1A06A0643E06A40B12046FFF776FE8C
:1009300020B14020606584F83570BAE720684661D0
:100940002046FFF757FE94F85C203F2191408160DC
:10095000656584F835700020ACE700003F8010F03A
:100960002DE9F0410446866D90F8340000250128F9
:100970000DD0012084F8340094F835700020012F48
:1009800007D084F8340002252846BDE8F081022013
:10099000FBE7022784F8357060652046FFF768FEA4
:1009A00094F85C103F208840B0602068016841F0F6
:1009B000160101602068416941F080014161206CAD
:1009C00020B12068016841F00801016020680168D9
:1009D00041F001010160D7E72DE9F84FDFF87CB164
:1009E00000224FF001084FF0030A4FF00F090BF1FE
:1009F000040E00BF0B6808FA02F42340A3426ED134
:100A00004D68022D01D0122D0ED1D50800EB850CBA
:100A1000DCF820505607F70E09FA07F6B5430E69C1
:100A2000BE402E43CCF82060066855000F790AFAC4
:100A300005FC07F0030726EA0C06AF4037430760C2
:100A40004E68012E05D0022E03D0112E01D0122E99
:100A50000ED18668CF6826EA0C06AF403743876020
:100A60004668A6430C79C4F30014944034434460B0
:100A7000C6688C6826EA0C06AC403443C4604C68F7
:100A8000E40065D5364C256845F48045256024682A
:100A900022F0030504F480440094324C2E19D6F859
:100AA000084895072F0F09FA07F5AC432E4DA842C9
:100AB00001D1002524E02D4DA84201D101251FE0E0
:100AC0002B4DA84201D102251AE02A4DA84201D19E
:100AD000032515E0284DA84202D1042510E037E097
:100AE000264DA84201D105250AE0254DA84201D195
:100AF000062505E0234DA84201D1072500E0082581
:100B0000BD402543C6F80858DBF800405D464E68F6
:100B10009C43F60300D51C432C60DEF8004075466C
:100B20004E689C43B60300D51C432C600B4D083522
:100B30002C684E689C43F60200D51C432C60074D80
:100B40000C352C684E689C43B60200D51C432C60C3
:100B5000521C102AFFF44EAFBDE8F88F003C014054
:100B600044380240003001400000024000040240CE
:100B700000080240000C0240001002400014024035
:100B800000180240001C02400069084000D001200B
:100B900070470AB1816170470904FBE7014880682A
:100BA00070470000740000200248816802781144F8
:100BB00081607047740000200B4810B5016841F453
:100BC00000710160016841F480610160016841F4D5
:100BD00080710160032000F091F8002000F006F819
:100BE00000F024F8002010BD003C024070B50D4D0F
:100BF00004464FF47A712878B1FBF0F00A4909688D
:100C0000B1FBF0F000F004FB48B9102C07D2002231
:100C10002146501E00F052F800206C6070BD01208B
:100C200070BD000074000020800000201B4808B543
:100C3000016841F480410160006800F48040009048
:100C40001648001F016841F08051016000680022D1
:100C500000F0805000900F216FF00B0000F02EF894
:100C600000220F216FF00A0000F028F800220F2167
:100C70006FF0090000F022F800220F21501F00F051
:100C80001DF800220F21101F00F018F800220F217C
:100C9000BDE80840901E00F011B800004438024042
:100CA000002809DB00F01F0201219140400980006B
:100CB00000F1E020C0F8001170470000F0B40E4BC6
:100CC0001B680C46C3F30223C3F10705042D00D9AA
:100CD0000425191D072901D2002300E0DB1E01268F
:100CE00006FA05F1491E214099409E40761E1640A5
:100CF0003143F0BC01F0FFBD0CED00E0064900F00F
:100D0000070208684FF6FF03184040EA0220034A32
:100D100010430860704700000CED00E00000FA0589
:100D20002DE9F0470E46050065D0DFF81481D8F8AC
:100D30000000F7B200F00F00B04207D288F8007050
:100D4000D8F8000000F00F00B04254D128683D4CA4
:100D5000810712D5400703D5206840F4E050206099
:100D60002878000703D5206840F4604020602068A0
:100D7000A96820F0F000084320602878C0072DD033
:100D8000304968680839012812D0022813D0032896
:100D900011D00968890700292DDA216821F00301A3
:100DA00001432160FFF7FAFE814641F2883A0EE0E6
:100DB00009688903EFE709688901ECE7FFF7EEFEB0
:100DC000A0EB0901514502D90320BDE8F087206856
:100DD000696800F00C00B0EB810FEFD1D8F800107B
:100DE000404601F00F01B14207D90770006800F0DA
:100DF0000F00B04201D00120E7E72878400705D571
:100E00002068E96820F4E050084320602878000753
:100E100006D52068296920F4604040EAC1002060BE
:100E200000F036F82168084AC1F30311515CC8404C
:100E3000064908600020FFF7D9FE0020C5E7000042
:100E4000003C024008380240A82B00088000002027
:100E50000448054900680968044AC1F38221515CCD
:100E6000C84070478000002008380240B82B0008B6
:100E70000448054900680968044AC1F34231515CDD
:100E8000C84070478000002008380240B82B000896
:100E9000154810B5006810F00C02144813D014491E
:100EA000042A0FD0082A0ED10F4C241F2268236871
:100EB00002F03F025B0207D52068C0F38810A0FB58
:100EC000010106E0084610BD2168C1F38811A1FBAD
:100ED00000010023FFF774F92168C1F30141491CA7
:100EE0004900B0FBF1F010BD083802400024F400C6
:100EF00040787D012DE9F84F050076D02878DFF89D
:100F0000F8B2BE4CC00749D0DBF800105846C1F318
:100F10008101012908D00068C0F3810002280AD1AC
:100F2000201D0068400206D52068800336D5686819
:100F30000028E2D032E06868B0F5803F10D0B0F50C
:100F4000A02F206810D020F480302060206820F48A
:100F5000802020606868A0B1FFF720FE06460CE004
:100F6000206840F48030F4E740F480202060F7E708
:100F7000FFF714FE801B642873D820688003F7D520
:100F80000CE0FFF70BFE064605E000BFFFF706FE8C
:100F9000801B6428F0D820688003F7D42878DFF815
:100FA000608280074FF000093ED5DBF800105846FC
:100FB00011F00C0F09D00068C0F3810002280BD19A
:100FC0008D48001F0068400206D42068800715D5B0
:100FD000E868012809D111E0E868B8B10120C8F833
:100FE0000000FFF7DBFD064605E002E1FFF7D6FD56
:100FF000801B0228C0D820688007F7D5206829699F
:1010000020F0F80040EAC10020600DE0C8F8009030
:10101000FFF7C4FD064604E0FFF7C0FD801B022871
:101020001FD820688007F7D42878000722D5724E91
:10103000744869696C3671B101210160FFF7AEFD3A
:10104000074604E0FFF7AAFDC01B022809D8306854
:101050008007F7D50EE0C0F80090FFF79FFD074628
:1010600005E083E0FFF79AFDC01B02287ED83068B8
:101070008007F7D42878400768D5DFF87CA10027DF
:101080000AF1380ADAF80000C0000BD4DAF80010D0
:1010900041F08051CAF80010DAF80000012700F092
:1010A00080500090584E3068C00510D4306840F42D
:1010B00080703060FFF772FD009005E0FFF76EFD75
:1010C0000099401A022851D83068C005F6D54A4E1A
:1010D000A868683601280FD00528306810D020F0A5
:1010E00001003060306820F004003060A868B8B1BA
:1010F000FFF754FD00900FE0306840F00100F4E786
:1011000040F004003060F7E7FFF748FD0099411A0E
:1011100041F28830814264D830688007F4D50EE00F
:10112000FFF73CFD009007E0FFF738FD0099411AFA
:1011300041F28830814254D830688007F4D42FB10E
:10114000DAF8001021F08051CAF80010A869C0B385
:10115000DBF80010C1F3810102294AD00228484679
:1011600007D0C8F86000FFF719FD00E039E0054638
:101170003AE04746C8F86000FFF710FD064604E075
:10118000FFF70CFD801B02282BD820688001F7D4C4
:10119000D5E907010843A96A1C4A490802EB014145
:1011A0006A6A41EA8211084395F82C1040EA01610D
:1011B0001148001F016001203866FFF7EFFC05466B
:1011C00005E014E0FFF7EAFC401B022809D820687C
:1011D0008001F7D50BE000BFFFF7E0FC401B0228C1
:1011E00002D90320BDE8F88F20688001F4D40020E4
:1011F000F8E70120F6E70000083802400038024016
:1012000000004742800E4742007000400000FFFF90
:1012100010B5401EB0F1807F01D3012010BD4FF00A
:10122000E02460610F21601701F065FB0020A061E0
:1012300007202061002010BD7047704710B590F85E
:101240003C20012A22D0012280F83C20CA688C6808
:1012500022F4407222434C6822F4806222430C68DC
:1012600022F4006222430C6922F4805222434C692A
:1012700022F400522243C969002322F480420A4327
:1012800001684A6480F83C30002010BD022010BD87
:1012900070B590F83C20012A19D0012400F83C4F89
:1012A0000222427050F83C3C5A689D6822F0700659
:1012B0000A684968324325F0800529435A6050F88E
:1012C0003C2C9160447000210170084670BD0220E2
:1012D00070BD10B5040003D094F83D0010B107E0D4
:1012E000012010BD002084F83C00204600F00CF8DE
:1012F000022084F83D00211D206800F0ABFF012092
:1013000084F83D00002010BD08B5016819488142ED
:1013100001D1194819E01848001FB1F1804F14D0CD
:10132000164A914219D1016841F00201016000683A
:10133000002200F0020000900F211D20FFF7BEFCEC
:10134000BDE808401D20FFF7ABBC016841F001017A
:101350000160006800F0010009E0094A914207D1EC
:10136000016841F004010160006800F00400009091
:1013700008BD000000000140443802400004004065
:1013800000080040022180F83D1001688A6802F0E0
:101390000702062A03D00A6842F001020A6001210E
:1013A00080F83D10002070470168CA6842F00102D1
:1013B000CA600068816801F00701062903D001684E
:1013C00041F0010101600020704770B5044690F8BB
:1013D0003C00012817D0012584F83C50022084F8F5
:1013E0003D002068826822F0770222F47F4282600A
:1013F0000868502830D00DDC20284DD005DC98B38B
:1014000010283BD148E0022070BD302844D040284D
:1014100034D139E0602828D0702806D0B0F5805F3C
:101420002CD0B0F5005F29D10AE0CB68D1E90121C9
:10143000206800F080FF2068816841F0770109E0B2
:10144000CB68D1E90121206800F075FF2068816830
:1014500041F48041816011E0CA684968206801F068
:101460003FF85021206807E016E0CA684968206804
:1014700001F047F86021206800F067FF84F83D50D4
:10148000002084F83C0070BDCA684968206801F0FB
:1014900027F840212068EFE7226801461046EBE775
:1014A0002DE9F0410D46040003D094F83D0018B139
:1014B00008E00120BDE8F081002084F83C002046CF
:1014C00000F03AF8022084F83D002068816844F278
:1014D000070291438160211D206800F0BBFE226855
:1014E00090689169166A2B68AF69034340F2033034
:1014F000814341EA0721A868EF6908434FF6FC41A0
:101500008843E96840EA0720014328692F6A0001FF
:1015100040EA0730084369686D6926F0AA0646EA82
:1015200005152943936022689061206801620120BB
:1015300084F83D000020BDE7F0B587B004461421D3
:101540006846FEF775FE1849206888422AD1174878
:101550000024016841F002010160006800F002000F
:10156000059012481438016841F0040101600068D8
:10157000022500F0040005904020CDE9000502AAF4
:1015800003260B4F82E8700069463846FFF724FABD
:1015900080200090CDE90154CDE9034669463846E4
:1015A000FFF71AFA07B0F0BD0004014044380240CA
:1015B0000008024010B50446006891B1042904D027
:1015C0000122002100F0AAFE206801225FF0040140
:1015D00000F0A4FE2068016841F0010101600020D4
:1015E00010BD01220021F3E7704770B50446006882
:1015F00001694FF00005C943890715D4C168C94383
:10160000890711D4E91E01610120207720688069D3
:101610008007204602D0FFF7E7FF04E000F0D8F88B
:10162000204600F05AF9257720680169C943490727
:1016300017D4C168C943490713D46FF0040101618D
:10164000022020772068806910F4407F204602D075
:10165000FFF7CAFF04E000F0BBF8204600F03DF9B8
:10166000257720680169C943090716D4C168C943B1
:10167000090712D46FF00801016104202077206867
:10168000C0698007204602D0FFF7AEFF04E000F0FB
:101690009FF8204600F021F9257720680169C943A9
:1016A000C90617D4C168C943C90613D46FF0100125
:1016B0000161082020772068C06910F4407F20462F
:1016C00002D0FFF791FF04E000F082F8204600F01E
:1016D00004F9257720680169C943C90708D1C168A1
:1016E000C943C90704D1891E0161204600F018F9D9
:1016F00020680169C943090609D4C168C9430906BC
:1017000005D46FF0800101612046FFF795FD206848
:101710000169C943490609D4C168C943490605D4CA
:101720006FF040010161204600F0C6F920680169B0
:10173000C94389060BD4C168C943890607D46FF031
:10174000200101612046BDE87040FFF776BD70BD05
:1017500030B587B0044614216846FEF769FD246859
:10176000174D0021174802220123AC4210D1046812
:1017700044F010040460006800F0100005901002AE
:101780000090CDE90121CDE9031369460E4812E02E
:10179000B4F1804F11D1046844F001040460006882
:1017A00000F00100059020200090CDE90121CDE955
:1017B000031369460548FFF70FF907B030BD000075
:1017C000000001403038024000100240000002409A
:1017D000704770B5044690F83C000D4601280DD0C6
:1017E000012684F83C60022084F83D0042B1042ABE
:1017F00018D0082A2AD00C2A4DD139E0022070BD19
:10180000206800F0ABFD2068816941F0080181612A
:101810002068816921F004018161206881692A6959
:10182000114311E0206800F0C9FD2068816941F48E
:10183000006181612068816921F480618161206893
:1018400081692A6941EA0221816124E0206800F06F
:10185000EBFD2068C16941F00801C1612068C169E0
:1018600021F00401C1612068C1692A69114311E0B6
:10187000206800F00DFE2068C16941F40061C1617B
:101880002068C16921F48061C1612068C1692A6949
:1018900041EA0221C16184F83D60002084F83C00E7
:1018A00070BD10B5040003D094F83D0010B107E0FE
:1018B000012010BD002084F83C00204600F00CF808
:1018C000022084F83D00211D206800F0C3FC0120A7
:1018D00084F83D00002010BD7047704710B50446E5
:1018E0000068012200F01AFD0B492068884202D0EE
:1018F0000A49884203D1416C41F4004141642068A7
:10190000816801F00701062903D0016841F0010157
:101910000160002010BD00000000014000040140F3
:1019200010B55E490068096888427DD15C4C03218E
:101930002078401CB0FBF1F201FB12002070E8B3EC
:1019400001284FD04FF40060014600F0F3FF84ED12
:10195000060A00BF01F0FEF8FDEEC00A504984ED12
:101960000C0A10EE900A0C31C0B200EE900A08701A
:10197000F8EE600A30EE600ADFED4A0A0123022227
:1019800020EE200ABDEEC00A10EE100A487043484F
:10199000C03000F067F942485030018849BA09B2B6
:1019A00000EE101A00F11001B8EEC00A81ED000A35
:1019B000428852BA12B200EE902A00E00AE0F8EE35
:1019C000E00AC1ED010A017961704079A070012936
:1019D00010D05DE04FF40070014600F0ABFF84EDE5
:1019E000040AB7E74FF48060014600F0A3FF84EDDE
:1019F000050AAFE7DFED2C1A1E2180EEA11AF3EEE7
:101A00000E0A31EE000A84ED130AE16194ED041A26
:101A1000B4EEE01AF1EE10FA34DD94ED051ADFEDC4
:101A2000231AB4EEE11A00E037E0F1EE10FA29DDF6
:101A300094ED061AB4EEE01AF1EE10FA22DD174921
:101A4000C8228C3900F0F4FA154884ED100A683089
:101A50001749D0EC020A70EE810A90ED021A70EE7E
:101A6000810A10EE900AC4ED110A884215DB208924
:101A7000002812D10A4909486831BDE810408C3865
:101A800001F002B89FED0B0A00F038FB01206071F5
:101A9000BDE81040002000F01DBB10BD100100206B
:101AA000000000200000C84200401C460000204208
:101AB000CDCC4C3E000000007047704770B504006C
:101AC00004D094F83900002510B106E0012070BD63
:101AD00084F83850204600F023F8242084F8390098
:101AE0002068C16821F40051C160204600F07AFDF1
:101AF0002068016921F4904101612068416921F069
:101B00002A0141612068C16841F40051C160E56368
:101B1000202084F8390084F83A00002070BD0000CD
:101B200070B586B0064614216846FEF781FB214950
:101B3000306888423BD120480025016841F40031DB
:101B40000160006800F4003005901B4810380168FF
:101B500041F0010101600068694600F00100059054
:101B60000C2000900220019001200290032003909D
:101B7000072004901148FEF72FFF124C10482060F8
:101B80004FF00060C4E901054014C4E9035080101F
:101B90006561C4E906504FF44030C4E908052046A9
:101BA000FEF774FE08B1FEF7A0FD7463A66306B0ED
:101BB00070BD000000440040403802400000024078
:101BC0008860024010020020F8B5044690F83A0000
:101BD00020283CD1C1B3BAB394F83800012836D0DC
:101BE000012084F83800A162A2850025E563222047
:101BF00084F83A00636B1748D863636B164818641F
:101C0000636B1648D864606B134605650846666BBF
:101C1000216802463046091DFEF7A2FE20680168D1
:101C20004168009184F83850C16841F48071C16006
:101C30002068416941F0010141612068416941F03A
:101C4000400141610020F8BDFFE70120FBE70220D1
:101C5000F9E7000071250008AD25000827250008D8
:101C6000704770472DE9F843044690F839001F4645
:101C700016460D46202850D1A5B19EB194F83800E3
:101C800001284AD0012084F838004FF00008C4F839
:101C90003C80212084F83900FEF780FFA68481462D
:101CA000E68426E00120BDE8F883E08C401EE08455
:101CB000A0684B46B0F5805F4FF000024FF0800106
:101CC0002046009703D000F0E3FDE8B90DE000F0F6
:101CD000DFFDC8B928882168C0F308004860206982
:101CE00008B16D1C05E0AD1C03E0216815F8010B7F
:101CF0004860E08C0028D8D14B4600224021204685
:101D0000009700F0C5FD08B10320CCE7202084F83F
:101D1000390084F838800020C5E70220C3E7FEE7D9
:101D2000F0B587B014216846FEF782FA34480024E3
:101D3000016841F001010160016801F001010591B4
:101D4000016841F010010160016801F01001059186
:101D5000016841F002010160016801F00201059192
:101D6000016841F008010160016801F00801059176
:101D7000016841F0040101600068224E00F0040097
:101D80004FF400650590002229463046FEF701FF1A
:101D90001D4F00224FF47E413846FEF7FAFE0095B3
:101DA0000125CDE90154694630460394FEF714FE3F
:101DB0004FF46066CDE90064694614480294FEF76A
:101DC0000BFECDE900650326CDE90246694638469B
:101DD000FEF702FE4FF45040CDE90005CDE9025672
:101DE00069463846FEF7F8FD68030090CDE90154D6
:101DF000694638460394FEF7EFFD07B0F0BD0000DA
:101E00003038024000100240000C02400004024042
:101E100010B596B000240F9410941194129413945A
:101E20001C2108A81494FEF703FA20216846FEF747
:101E3000FFF91F481D4901605421C0E9011440F217
:101E4000E731C0E9031444618461FFF742FA4FF4BB
:101E500080500F900FA91648FFF7B7FA1448FFF704
:101E600020FD139413A912481494FFF711FA60206F
:101E7000CDE908040A940B940C940D94002208A94F
:101E80000B480E94FFF7A5FC00944FF40050CDE9E9
:101E90000440029401940394694605480794FFF7AF
:101EA000CDF90348FFF754FC16B010BD0000014007
:101EB0009000002010B58EB0002407940894099477
:101EC0000A940B941C2168460C94FEF7B1F917484C
:101ED0004FF08041016040F28F61C0E9011440F28F
:101EE000E731C0E903148461FFF7F3F94FF4805040
:101EF000079007A90D48FFF768FA0C48FFF7D1FCD7
:101F00000B940BA909480C94FFF7C2F96020CDE9A6
:101F1000000402940022694604480494FFF759FC27
:101F20000248FFF715FC0EB010BD0000D0000020E5
:101F300010B586B0002412480094019402940394D2
:101F400004940E490594016042F2CF01C0E90114E6
:101F500040F2E731C0E903148461FFF7BAF94FF4A6
:101F60008050009069460648FFF72FFA049404A9B0
:101F700003480594FFF78CF906B010BD000400403B
:101F80001001002010B586B0002410480094019480
:101F90000294039404940C490594C0E900148460ED
:101FA000C46004618461FFF794F94FF4805000909D
:101FB00069460648FFF709FA049404A90348059402
:101FC000FFF766F906B010BD000800405001002080
:101FD00010B58CB024216846FEF72AF90024124877
:101FE000099410490A94C0E900144FF4BB71C0E988
:101FF00002410461446184610120CDE90004CDE91E
:1020000002040494CDE90540079469460648089403
:10201000FFF746FA099409A903480A94FFF738F92B
:102020000CB010BD0004014090010020FEE7704795
:1020300070B515462DED028BB0EE408A012801D017
:1020400018B104E04FF4617201E04FF4C8721F4C04
:102050002089401C2081D4ED0A0A94ED0E0A104616
:1020600070EE880A38EE400AC4ED0A0A84ED0E8A42
:1020700091ED001AD1ED021A21EE481A01EEE01A94
:10208000D1ED010A00EEC01A84ED0F1A00F022F81B
:102090009FED0F0A00F032F82089A84205D394ED95
:1020A0000B0A08EE080A84ED0B0AB0EB450F01D1CC
:1020B0000020208100EE105AD4ED0B0AB8EE401A31
:1020C000BDEC028B80EE810A70BD00000000002094
:1020D00000000000074A084B4FF400611268002816
:1020E00002DB5063002202E04042506301221846A6
:1020F000FEF74FBD9000002000100240F0EEC00A35
:1021000010EE900A13499FED141A884203DD60EE29
:10211000011A81EEA00ADFED110A11499FED112A83
:10212000D1ED081A30EE200AD1ED090A71EEE01A5D
:1021300061EE801A81EE820A30EE200A20EE010A5A
:10214000BDEEC00A10EE100A4863074900B20968E4
:102150004863704700004842000048420000C942FE
:102160000000002000003443D0000020704770477A
:10217000FEF71ABD30B593B030216846FEF758F827
:1021800014210CA8FEF754F818480025016841F006
:1021900080510160006800F080501190144801687F
:1021A00041F4804101600068022400F480401190F5
:1021B0000120039010200490009406940820CDE99B
:1021C00007505420CDE9090404200B906846FEF71F
:1021D00091FE0CA90F2081E83100E002CDE90F0546
:1021E00002210CA8FEF79CFD13B030BD4038024020
:1021F000007000401048016841F4700101600F4810
:10220000016841F0010101600C4A002108321160AF
:1022100002680B4B1A400260031D0A4A1A600268EA
:1022200022F48022026005480C3001600249580601
:10223000803908607047000088ED00E000380240F7
:10224000FFFFF6FE103000240148FFF7CEB9000072
:1022500010010020F0B50268254C264D264E274F70
:10226000274B4FF0804CA04209D0604507D0A842D0
:1022700005D0B04203D0B84201D0984204D122F038
:10228000700E4A6842EA0E02A0421BD0604519D087
:10229000A84217D0B04215D0B84213D0984211D0FE
:1022A000184DA8420ED0184DA8420BD0174DA84289
:1022B00008D0174DA84205D0164DA84202D0164DA1
:1022C000A84203D122F44075CA682A434D6922F01E
:1022D00080022A4302608A68C2620A688262A0425F
:1022E00001D0984201D10969016301214161F0BD2A
:1022F000000001400004004000080040000C0040C5
:1023000000040140004001400044014000480140F9
:1023100000180040001C00400020004010B501F0F3
:102320001F030121046A99408C430462016A9A40A8
:102330001143016210BD10B5846842EA032224F4FF
:102340007F440A432243826010BD826822F07002FB
:102350000A4342F00701816070470000F0B5026A4D
:1023600022F001020262036A42688469124E24F07C
:1023700073050C682C4323F002058B682B430D4D2D
:10238000A84201D0B04205D123F00807CB683B43F7
:1023900023F00403A84201D0B04205D14D6922F4D4
:1023A000407215438A692A434260846149684163E7
:1023B0000362F0BD0000014000040140F0B5026A74
:1023C00022F010020262026A436884690D6824F4F4
:1023D000E64444EA05248D6822F0200242EA051210
:1023E0000F4D104EA84201D0B04206D1CF6822F066
:1023F000800242EA071222F04002A84201D0B04215
:1024000007D14D6923F4406343EA85038D6943EAAC
:10241000850343608461496881630262F0BD000006
:102420000000014000040140F0B5026A22F480720D
:102430000262026A4368C46922F4007224F07305E0
:102440000C68124E2C438D6842EA05220E4DA842BC
:1024500001D0B04206D1CF6822F4006242EA0722DE
:1024600022F48062A84201D0B04207D14D6923F422
:10247000405343EA05138D6943EA05134360C46181
:102480004968C1630262F0BD0000014000040140E0
:1024900030B5026A22F480520262046A4268C3695B
:1024A0000D6823F4E64343EA05238D6824F40054C1
:1024B00044EA0534084DA84202D0084DA84204D190
:1024C0004D6922F4804242EA85124260C361496844
:1024D0000164046230BD00000000014000040140BE
:1024E00010B5036A046A24F001040462846924F0CC
:1024F000F00444EA021423F00A020A4384610262EF
:1025000010BD10B5036A23F0100303628369046AE7
:1025100023F4704343EA023224F0A00343EA01119A
:102520008261016210BD70B5846B2068406994F8C7
:102530003910C0F3C0100025212904D118B1E58459
:10254000204600F046F82068406994F83A10C0F33D
:102550008010222904D118B1E585204600F02BF81F
:10256000E06B40F01000E0632046FFF7A6FA70BD74
:1025700010B50146806B09680968C90513D40021AC
:10258000C1850168CA6822F48072CA6001684A691C
:1025900022F001024A6101684A6922F040024A6160
:1025A000202180F83A10FFF75BFB10BD10B5806B5F
:1025B000FFF757FB10BD0168CA6822F49072CA6029
:1025C00001684A6922F001024A61202180F83A102C
:1025D00070470168CA6822F0C002CA60202180F8F2
:1025E000391070472DE9F041044600680169E2683E
:1025F00021F44051114301612169A068E269084357
:102600006169114322680843D16849F20C63994318
:102610000143D16020684169A26921F440711143EE
:102620004161E2696425B2F5004F974897492268F5
:102630004FF032083FD08A4201D082427CD1FEF76F
:1026400017FC00EBC00101EB001061688900B0FBD2
:10265000F1F6FEF70DFC00EBC00101EB0010616824
:102660008900B0FBF1F0B0FBF5F06FF018014843C2
:1026700006EB800108EB0110B0FBF5F000F0F0066E
:10268000FEF7F6FB00EBC00101EB0010616889006A
:10269000B0FBF1F0B0FBF5F006EB0016FEF7E8FB3F
:1026A00000EBC00101EB001061688900B0FBF1F79D
:1026B000FEF7DEFBD2E08A4201D082423DD1FEF736
:1026C000D7FB00EBC00101EB001061684900B0FBD3
:1026D000F1F0B0FBF5F00601FEF7CAFB00EBC0011C
:1026E00001EB001061684900B0FBF1F7FEF7C0FB99
:1026F00000EBC00101EB001061684900B0FBF1F094
:10270000B0FBF5F06FF01801484307EB800108EBD0
:10271000C100B0FBF5F000F0F80006EB4006FEF754
:10272000A7FB00EBC00101EB001061684900B0FBA2
:10273000F1F7FEF79DFB3CE055E0FEF789FB00EB6F
:10274000C00101EB001061684900B0FBF1F0B0FB83
:10275000F5F00601FEF77CFB00EBC00101EB001079
:1027600061684900B0FBF1F7FEF772FB00EBC001B6
:1027700001EB001061684900B0FBF1F0B0FBF5F02F
:102780006FF01801484307EB800108EBC100B0FB74
:10279000F5F000F0F80006EB4006FEF759FB00EB01
:1027A000C00101EB001061684900B0FBF1F7FEF7D2
:1027B0004FFB00EBC00101EB001061684900B0FB6A
:1027C000F1F0B0FBF5F06FF01801484307EB800122
:1027D00008EBC100B0FBF5F000F0070021683044C1
:1027E0008860BDE8F081FEF733FB00EBC00101EB30
:1027F000001061688900B0FBF1F6FEF729FB00EBE1
:10280000C00101EB001061688900B0FBF1F0B0FB82
:10281000F5F06FF01801484306EB800108EB01105A
:10282000B0FBF5F000F0F006FEF712FB00EBC00184
:1028300001EB001061688900B0FBF1F0B0FBF5F02E
:1028400006EB0016FEF704FB00EBC00101EB0010E5
:1028500061688900B0FBF1F7FEF7FAFA00EBC001FE
:1028600001EB001061688900B0FBF1F0B0FBF5F0FE
:102870006FF01801484307EB800108EB0110B0FB33
:10288000F5F000F00F00A9E700140140001001402E
:102890002DE9F041984617460E460446069D1DE078
:1028A000681C1BD02DB1FEF779F9A0EB0800A842F7
:1028B00014D92068C16821F4D071C16020684169D1
:1028C00021F001014161202084F8390084F83A00A8
:1028D000002084F838000320BDE8F08120680068FB
:1028E00036EA000004D00020B842D9D00020F3E737
:1028F0000120F9E7FEE70907090E002804DB00F1D3
:10290000E02080F80014704700F00F0000F1E02094
:1029100080F8141D704702E008C8121F08C1002A81
:10292000FAD170477047002001E001C1121F002A50
:10293000FBD170472DE9F0411D4C054600200E46A5
:10294000E0801C4F012229463846FEF722F90A2072
:10295000FDF7A2FE002229463846FEF71AF9164D69
:1029600031462846FEF710F90028F9D004E0401C53
:10297000E0800120FDF790FE31462846FEF704F97D
:102980000028E088F3D1FDF73FFD9FED0C1B53ECD1
:10299000112BFDF758FC9FED0B1B53EC112BFDF792
:1029A00052FCFDF73EFD00EE100ABDE8F08100008C
:1029B00000000020000C02400004024003098A1FAE
:1029C00063EEAA3F000000000000E03F08B5FEF7FC
:1029D000F3F8FFF7CFFBFFF7A3F9264800240168BF
:1029E00041F4001101600068224600F400100090DC
:1029F0000F211020FEF762F91020FEF751F9FFF7C2
:102A000007FAFFF757FAFFF793FA1C481A490160D3
:102A10004FF4E131C0E901140C21C460C0E9044164
:102A20008461C461FFF74AF8FFF7D2FAFFF7AAFA08
:102A3000FDF746FE00211248FEF750FF1048FEF752
:102A4000A1FC0F484030FEF79DFC0D4800214030AE
:102A5000FEF744FF0A488030FEF7A6FC0748002135
:102A60004038FEF7A7FD062206490448FFF7ACF8F8
:102A7000FEE700003038024000440040D001002052
:102A8000900000205000002070B52F4ADFED2F0A83
:102A90001346D6781B79032501EB830400EB8303EF
:102AA000012E13D00126D67093ED001AD4ED001A32
:102AB000B0EE002A01EEC21A83ED001AD2ED121A0E
:102AC000B4EEE10AF1EE10FA0FD319E093ED001A1B
:102AD000D4ED001A31EE211A83ED001A92ED121A8C
:102AE000B4EEC10AF1EE10FA07D282ED120A1079A3
:102AF00001EB800090ED000A14E00020D0701CE093
:102B00001379DFED130A00EB830001EB830393EDF0
:102B1000000A31EE000A80ED000A107901EB800016
:102B200090ED000A20EE200A80ED000A1079401C8A
:102B3000B0FBF5F105FB110010715089BFEE000AE2
:102B4000401C508170BD000000000020CDCC8C3FA7
:102B50006666663F0E4910B50868002280B20A60BA
:102B6000FDF752FC41EC100B0A4890ED161B51EC9E
:102B7000100B53EC112BFDF766FB9FED071B53EC7D
:102B8000112BFDF7D2FBFDF74CFC00EE100A10BD37
:102B90002404014000000020000000000060774095
:102BA00000061016000610160000000000000000CD
:102BB00001020304060708090000000001020304E3
:102BC000E02B000800000020840000001629000807
:102BD000642C000884000020EC0500002629000871
:102BE00000000001000000000000000000000000E4
:102BF00000000000000000000000000014000000C1
:102C0000000020400000003F000000000000000025
:102C100014AE0740000000000000000000000000AB
:102C200000000000000000000000000000000000A4
:102C3000000000000000000097D17E5AFB210940EF
:102C400000000000000000000000803F0000803F06
:102C50000000803F010000001000000000000000A4
:042C60000024F40058
:040000050800018965
:00000001FF
